:020000040800F2
:10000000002000100D3E0308FD7002085D7B010812
:10001000FB700208F9700208F77002080000000087
:10002000000000000000000000000000F570020861
:10003000F370020800000000F170020869C30108B3
:10004000753E0308753E0308753E0308753E0308B8
:10005000753E0308753E0308F9CA010825CC01085E
:10006000E9CB0108ADCB010871CB010839030208C7
:10007000290302081903020809030208F902020809
:10008000E5020208D1020208753E0308753E030826
:1000900089A10208753E0308753E030835CB0108A7
:1000A000753E0308753E0308753E0308753E030858
:1000B00051BC010895BB0108D9BA0108753E030877
:1000C000753E0308753E0308753E0308753E030838
:1000D000753E030825C40108753E0308A9C301083D
:1000E000BDCA0108753E0308E1700208753E0308A9
:1000F00049B90108753E030811BA0108753E0308A5
:10010000000000000000000000000000753E030831
:10011000753E0308753E03080DAC0008F9AB0008F6
:10012000BD020208A9020208950202088102020823
:100130006D020208753E0308000000000000000088
:10014000753E0308753E0308753E03080000000075
:10015000000000000000000000000000000000009F
:100160000000000000000000753E0308753E030813
:10017000753E0308000000000000000000000000C1
:0801800000000000753E0308B9
:1001880000230122C270837003800371437183715D
:10019800C37103724372704700230A2203604360ED
:1001A800C381C0F80630C0F80A300280704700BF2B
:1001B8002DE9F843704CE279237A9A427FD0E279AC
:1001C800E379C2EBC20204EB8202C3EBC30304EB84
:1001D800830392F82B101E7C8B1E9E422CD0674AFC
:1001E800B4F864301278E16801339BB21B2AA4F892
:1001F800643067D00025E379614A0133A2FB03022A
:10020800520802EB42029B1ADBB2E37100293BD091
:100218001BF052FFD4F89830C01AB0F5FA7F04DB0F
:10022800002345F0040584F89630D4F89030002B6C
:1002380032D12846BDE8F883E37904F11007C3EB0F
:10024800C30307EB830361B11944002213F8015B70
:100258002A44994292B2F9D1D3B203EB1222FF2A6F
:1002680038D0464AB4F864301278E16801339BB25A
:100278001B2AA4F86430BDD1424BB4F864205A80DC
:1002880004229A800025B6E794F89630002BBFD157
:10029800D4F89030002BCCD03B4A1268D31AB3F56F
:1002A800FA7FC6D994F86630032B04BF0023A4F85C
:1002B8008C300023C4F890302846BDE8F883E16804
:1002C8000025A3E72F4BB4F864205A8003229A80B4
:1002D800002590E7E37901221C2101FB0323FA188A
:1002E800FD5C5DB3012D15D1082E3CD0234AB4F82E
:1002F80064301278E16801339BB21B2AA4F8643099
:100308007FF478AF1F4BB4F864205A8006229A8095
:10031800002570E7194AB4F864301278E1680133AF
:100328009BB21B2AA4F864307FF464AF154BB4F871
:1003380064205A8005229A8000255CE7192EE1681E
:1003480024D00E4AB4F86430127801339BB21B2AC9
:10035800A4F864307FF44FAF0A4BB4F864205A8095
:1003680006229A8047E794F89430002B40F0E98001
:100378001D46E1683FE700BF30230020956100205B
:10038800ABAAAAAAA0610020F83D002092F802C0FA
:100398005578036992F8038092F804909679D77992
:1003A80092F808E00CF0070C45EA0C2508F03F0825
:1003B80092F80AC01D8095784FEA481848EAD5088F
:1003C800957BA3F8028092F803804FEA890040EAFF
:1003D800981092F8058008F0010840EA8820988073
:1003E80006F00F06507992F80780F60146EA5000A9
:1003F800567AD8804FEA4E0E4EEAD81E06F003060B
:1004080092F80680D07A07F07F074EEA462E3F0121
:10041800567BA3F80AE047EA18171F8106F007077A
:10042800967A92F809E0C00040EA5610167B0CF064
:100438001F0C46EA072605F03F05577BD8816D015A
:100448004FEA8C1C45EAD7004CEA9E0CA3F80CC076
:100458001E825882D07B92F80EE0D77C92F81280E8
:1004680092F811C0967C557D800040EA9E1092F863
:1004780010E07F000EF0010E47EAD8170CF00F0CC1
:1004880092F8108040EA8E204FEACC1C92F814E0D3
:1004980098824CEA580C907DA3F816C006F07F06A7
:1004A80092F811C00EF0030E47EA4E27360146EACD
:1004B8001C165F8392F814C0577D1E8305F01F0534
:1004C800AD01C00045EA9C0540EA5710D8839D83DA
:1004D800D57D40F2147015F0010F14BF0646AD2605
:1004E80015F0020F08BFAD201E8458842B0759D47D
:1004F80015F0040F0CBF0125092594F86630032B6D
:100508001AD194F86700137E2B4FA26E04EB4006B5
:10051800C3EB8323A7FB0373B6F86C705B09D21B8C
:1005280001301A4400F00F0084F867001009A6F89B
:100538006C30A266A4F88C00204B1B68C4F890307D
:1005480059E65378102B14D01ED8D3B994F89530A7
:10055800E168002B7FF44EAE94F89730012B23D935
:1005680019B10A78303A012A1ED9002584F8975023
:1005780041E694F895300BB984F89550012384F836
:100588009630E168002536E6303B012BF9D852F861
:10059800010FE46091889379A1802060A3710849D4
:1005A800002528E60325A8E70133012284F89730BF
:1005B80084F8962000251EE61F85EB51F83D0020A3
:1005C8003023002010B504461BF076FD514B002265
:1005D80083F89C2093F89D20012A19D9D3F8A020EC
:1005E80040F6AC51821A8A4212DD4B49B3F86420B6
:1005F8000978013292B21B29A3F8642005D1474A31
:10060800B3F86410518001219180002283F89D2065
:10061800E2B27E2A27D093F89D1019B393F89D1063
:100628001B2956D893F8AC1000296CD0002182F011
:10063800200283F8AC1093F89D10022903D1012AF7
:1006480008BF83F8A420197A93F89D4093F89D0079
:10065800C1EBC10103EB810121440130C0B2CA736F
:1006680083F89D0010BD93F89D20012A2BD91A7A92
:100678002B49DC790132A1FB02C1490801EB410198
:10068800521AD2B294420AD093F89D40197A1A723B
:10069800C1EBC10103EB8101621E81F82B2093F8A5
:1006A800A4203AB10121002283F89C1083F8A420E9
:1006B800C3F89800184A12781B2A1ED00022C3F8E3
:1006C800A80083F8AC20012283F89D20C3F8A0007D
:1006D80010BD002283F89D200F49B3F864200978E3
:1006E800013292B21B29A3F86420BBD10B4AB3F89C
:1006F800643053800223938010BDD3F8A8200749A3
:10070800821A0A80DAE77D2A95D1012283F8AC2083
:1007180010BD00BF3023002095610020A06100209B
:10072800ABAAAAAA034B03EB4101B1F8B000C00879
:10073800704700BF30230020724B93F8D020002A66
:1007480000F0C28070B493F8D140B3F8D25003EBF4
:100758004401002091F8D76091F8D82083F8D000A0
:1007680042EA0622954202D0002070BC704793F8F6
:10077800D520012A00F0AA80812AF6D10320102C66
:1007880040F2A68093F8D94093F8D75093F8D81040
:1007980093F8DA2041EA052142EA04221024A3F85A
:1007A800B010A3F8B22083F8D14093F8DB1093F887
:1007B800DC20032C42EA0122A3F8B420D5D093F818
:1007C800DD1093F8DE20042C42EA0122A3F8B620BB
:1007D800CBD093F8DF1093F8E020052C42EA0122F1
:1007E800A3F8B820C1D093F8E11093F8E220062CC2
:1007F80042EA0122A3F8BA20B7D093F8E31093F89D
:10080800E420072C42EA0122A3F8BC20ADD093F8DB
:10081800E51093F8E620082C42EA0122A3F8BE204E
:10082800A3D093F8E71093F8E820092C42EA0122B4
:10083800A3F8C02099D093F8E91093F8EA200A2C7D
:1008480042EA0122A3F8C2208FD093F8EB1093F864
:10085800EC200B2C42EA0122A3F8C42085D093F89F
:10086800ED1093F8EE200C2C42EA0122A3F8C620E2
:100878003FF47BAF93F8EF1093F8F0200D2C42EA89
:100888000122A3F8C8203FF470AF93F8F11093F851
:10089800F2200E2C42EA0122A3F8CA203FF465AFE9
:1008A80093F8F31093F8F420102C42EA0122A3F8ED
:1008B800CC207FF45AAF93F8F51093F8F62042EA6B
:1008C8000122A3F8CE2050E700207047104656E7D3
:1008D800002C3FF44AAF93F8D71093F8D820012C96
:1008E80042EA0122A3F8B0203FF43FAF93F8D910B1
:1008F80093F8DA20022C42EA0122A3F8B2207FF40E
:1009080054AF32E73023002038B504461BF0D4FB3F
:10091800444AD2F8FC30C31AB3F57A6F16D892F865
:100928000031C2F8FC00B3B1022B1FD0242B92F87F
:10093800D11075D901330231DBB249008B4282F8FC
:1009480000311BDB01318B4263D038BD0023C2F874
:10095800FC0082F80031A82CF7D1002382F8D030AF
:10096800A2F8D23092F8D110204603E0E0B282F823
:10097800D1000146D51885F8D400DBE7B2F8D230AB
:10098800E4B283EA042424B2002CB8BF41F2210166
:10099800A3B2B4BF81EA43035B009BB21C0446BF09
:1009A80041F2210181EA43035B009BB2180446BF70
:1009B80041F2210181EA43035B009BB2190446BF5F
:1009C80041F2210181EA43035B009BB21D0446BF4B
:1009D80041F2210181EA43035B009BB21C0446BF3C
:1009E80041F2210181EA43035B009BB2180446BF30
:1009F80041F2210181EA43035B009BB2190446BF1F
:100A080041F2210181EA43035B009BB2A2F8D23094
:100A180038BD0021012382F8001182F8D03038BD9A
:100A2800E0B2A7E730230020F8B5134D95F8192157
:100A38000AB90120F8BD114B1C6823685E6A46B1EB
:100A4800204605F58271B047002385F81931012049
:100A5800F8BD05F58277BE1800E023689B6820463C
:100A680098470028F9D0236817F8011B1B6820460F
:100A78009847B742F1D1E7E7302300203C6F0020C8
:100A880003788B4210D9094B03EB810193F84C3161
:100A9800D1F81C011BB900F5777080B27047400887
:100AA80000F5777080B2704700207047302300202F
:100AB8002DE9F8431BF000FBCD4C054694F84D0199
:100AC80080B9042294F8193153B1D4F870313BB18C
:100AD800ED1AB5F57A7F03DB00231046C4F87031B0
:100AE800BDE8F88394F84E11002384F84D310029AD
:100AF80000F0308194F85031BE4F94F860215BB219
:100B080013F1630FB8BF97F90030002A41D013F1F1
:100B1800310F80F2B18113F1380F80F2B18113F1F6
:100B28003D0F80F2B18113F1420F80F2B18113F1D0
:100B3800450F80F2B18113F1470F80F2B18113F1B3
:100B4800490F80F2B18113F14A0F00F0B18113F11E
:100B58004B0F00F0B08113F14C0F00F0B08113F18E
:100B68004D0F00F0AF8113F15C0FB8BF642680F21F
:100B78004981D4F86401DFF888C200FB06F08CFBD9
:100B880000C6C017C0EB661004EB820680B2C6F838
:100B98001C013B7094F85C7194F85D3194F85E0127
:100BA80094F85F611B0443EA0763334343EA002375
:100BB80003F0F020B0F1E02F00F0C380102794F884
:100BC800740194F85231D4F8786194F87CC136787D
:100BD800034103F00F039E4210D90B2B0ED8002AB5
:100BE80040F0F38094F8528194F853E104EB8303C6
:100BF8000CEA08080EEB082EC3F81CE194F85431EF
:100C0800034103F00F039E4210D90B2B0ED8002A84
:100C180040F0DF8094F8548194F855E104EB8303A5
:100C28000CEA08080EEB082EC3F81CE194F85631BC
:100C3800034103F00F039E4210D90B2B0ED8002A54
:100C480040F0CB8094F8568194F857E104EB830385
:100C58000CEA08080EEB082EC3F81CE194F858318A
:100C6800034103F00F039E4210D90B2B0ED8002A24
:100C780040F0B78094F8588194F859E104EB830365
:100C88000CEA08080EEB082EC3F81CE194F85A3158
:100C9800034103F00F039E423ED80D2F32DD94F836
:100CA8005C31034103F00F039E4210D90B2B0ED881
:100CB8000AB19A420BD094F85C8194F85DE104EB98
:100CC80083030CEA08080EEB082EC3F81CE1102F6A
:100CD80018D194F85E3143FA00F000F00F00864214
:100CE80010D90B280ED80AB190420BD094F85E2187
:100CF80094F85F3104EB800002EA0C0C03EB0C2340
:100D0800C0F81C31D1B194F852311B0616D4C4F87E
:100D1800705105220120D5E60B2BBED80AB19A42A4
:100D2800BBD094F85A8194F85BE104EB83030CEA96
:100D380008080EEB082EC3F81CE1AEE705220120D7
:100D4800C0E694F8520100063FF538AF2A480C2750
:100D5800036034E71BF0B0F92649284B4A78A3FB17
:100D680000035B0C12B394F8500194F85121D2B2ED
:100D7800122A18BF012A08D002F0EF02A2F1A2023B
:100D8800B2FA82F2520902B94A70D4F8681194F89A
:100D9800602199B18B4228D0591A012956D094F86C
:100DA8004E11A4F86C01C4F86831F3E694F85021A8
:100DB80094F8510100EB022080B2E6E7A4F86C0138
:100DC800C4F8683194F84E11E4E693427FF40AAF10
:100DD80014E793427FF41EAF28E793427FF432AFC3
:100DE8003CE793427FF446AF50E794F84E11D1E6C2
:100DF80030230020000000203807002083DE1B433A
:100E08001F85EB516FF05B080C26304806F1FF395F
:100E180000EB490E00EB46069EF801E096F801C08B
:100E280010F91960ACEB0E0C981B00FB0CF0A8EB4A
:100E3800060690FBF6F0704440B2002801DA00265E
:100E480097E66428A8BF6420064692E6002AA6D042
:100E5800B4F86C61D4F864111D4F861B143E01FB75
:100E680006F187FB0176C917A1EBE60104EB8206C0
:100E780089B2C6F81C1192E76FF030080126C4E762
:100E88006FF037080226C0E76FF03C080326BCE77E
:100E98006FF041080426B8E76FF044080526B4E768
:100EA8006FF046080626B0E76FF048080726ACE75B
:100EB80098460826A9E76FF04A080926A5E7984644
:100EC8000A26A2E798460B269FE700BF8C43030833
:100ED80067666666344B5B68C3F3080370B4CBB9C6
:100EE800EFF31183B3B9314A314E324D1368AC6810
:100EF80011688B42FAD131688C42F7D82E4A1568AE
:100F08004FF47A7101FB05F2141BB4FBF5F401FBF5
:100F1800034321E0EFF31181102383F3128803F1D7
:100F2800E023C9B29D681A6812F4803F234A1EBFA5
:100F3800012414609D681D4B1E68136881F3118895
:100F48001D4A14684FF47A71334401FB04F2521BB2
:100F5800B2FBF4F201FB0323194AD2F88011C2F85C
:100F680080315B1A41F288318B420AD9C0B2012321
:100F780082F8500182F88431002382F84D3170BC28
:100F8800704792F884310F2BF9D8D1180133DBB2AE
:100F9800C0B2102B81F8500182F88431ECD10123C2
:100FA80082F84D3170BC704700ED00E0F83D00203C
:100FB800003E002010E000E0FC3D0020F43D002051
:100FC80030230020036933F8110000EB8000C010C3
:100FD80000F55C7080B27047436993F82320002ABB
:100FE80000F0CF802DE9F0477B4ADE7D12780021A2
:100FF8001A2A06F0040506F0080483F8231000F006
:10100800C280002D40F0CC80002C40F0D9802546CD
:1010180093F802A093F8068093F801E00269DF785C
:1010280093F8049093F807C00AF0070008F00F013E
:101038004FEAC1184EEA002107F03F07187A1180DD
:10104800997893F805A093F80AE07F0147EAD10759
:10105800D97857804FEA890949EA9119997B0AF0AA
:10106800010A01F03F014F0149EA8A21918059792B
:1010780048EA5101D1800CF07F0C997993F80780E8
:101088004FEA0C1C4CEA111C597AA2F808C040001F
:1010980040EAD81001F0030140EA412093F80DC05E
:1010A800D97A50810EF01F0E587A4FEA8E1E4EEAFA
:1010B80090009081187B93F80AE00CF0070C40EA46
:1010C8000C20C90093F80DC0108241EA5E11D1814D
:1010D80047EADC01518293F80FE093F80E80597CBF
:1010E800DF7C93F812C0587D4FEA8E0E4EEA981EA8
:1010F80093F8108008F001084EEA882E01F00F01DD
:1011080093F81280A2F814E093F810E07F00C90168
:1011180041EA5E0147EAD81793F814E093F8118082
:10112800D1820CF07F0C4FEA0C1C997D0EF0030E57
:101138004CEA181C47EA4E2716F0010F93F814E002
:10114800A2F818C000F01F0093F815C0578340F2AA
:10115800147314BF1F46AD278001C90016F0020F93
:1011680040EA9E0041EA5C1108BFAD239083D18319
:10117800178453840CBB002D0CBF01200920BDE847
:10118800F0871046704715491F8C0E8075B147F0DF
:1011980002021A8412B274B147F003021A8409E0F9
:1011A8001A8C94B942F002021A8431E78CB147F0E4
:1011B80001021A8412B24A802AE70320BDE8F087A8
:1011C8001A8C42F001021A8422E742F003021A84C0
:1011D8001EE73AB22546EEE795610020A06100209F
:1011E8003B4B5B68C3F30803F0B42BBBEFF31183ED
:1011F80013BB384A384F394E1368B5681468A34290
:10120800FAD13C68A542F7D8354A16684FF47A7483
:1012180004FB06F2551BCA69B5FBF6F504FB03533C
:101228009A1A40F6AC54A2422EDC91F8224074B3CC
:10123800182C38D9F0BC7047EFF31184102383F3CE
:10124800128803F1E023E4B29E681A6812F4803F22
:10125800244A1EBF012515609E681E4B1F6813682F
:1012680084F311881E4A15684FF47A7404FB05F25A
:101278003B44921BB2FBF5F204FB0323CA6940F618
:10128800AC549A1AA242D0DD002281F822200F28FD
:10129800D0D10122CB61087081F82220002381F887
:1012A8002330F0BC7047631CDBB2192B81F8223065
:1012B8000855F3D10C4B1B781A2B08BF0B4B4FF07A
:1012C800010081F8230008BF9A80F0BC704700BF76
:1012D80000ED00E0F83D0020003E002010E000E0B6
:1012E800FC3D0020F43D002095610020A061002015
:1012F800094BDFED0A6ADFED0A7A03EB810191ED14
:10130800627AB8EE477AE7EE267AFCEEE77A17EECD
:10131800903A98B2704700BF3023002001F11F3F78
:1013280000405C44714A92F8C83133B192F8CE312A
:101338000021162B82F8C81101D00020704792F8BE
:10134800CD31022BF0B440F2CE8002F5E67018449D
:1013580002F5E771D32311F8014F634013F0800FB2
:101368004FEA430318BF83F0D503DBB213F0800FB5
:101378004FEA430318BF83F0D503DBB213F0800FA5
:101388004FEA430318BF83F0D503DBB213F0800F95
:101398004FEA430318BF83F0D503DBB213F0800F85
:1013A8004FEA430318BF83F0D503DBB213F0800F75
:1013B8004FEA430318BF83F0D503DBB213F0800F65
:1013C8004FEA430318BF83F0D503DBB213F0800F55
:1013D8004FEA430318BF83F0D5038842DBB2BAD182
:1013E80092F8E511994202D00020F0BC704792F8BB
:1013F800D40192F8D36192F8D81192F8DC3192F8BE
:10140800E04192F8D051B2F8D0C1D2F8D07100F0D2
:101418000F00C00140EA560001F01F0192F8D761A1
:10142800C2F89401890141EA960103F03F0392F85A
:10143800DB6192F8DF01C2F8A0115B0143EAD60331
:1014480092F8CF11C2F8AC3104F07F04B2F8D4316D
:10145800D2F8D461240105F0070544EA101041EAE6
:101468000521C3F30A13C2F8B801B2F8D851C2F87B
:101478008811B2F8DA41D2F8DC01B2F8DE11C2F80C
:101488009831D2F8E031C0F38A10C1F34A01C3F3AE
:10149800CA13CCF3CA0CC7F38A37C6F3CA366D0928
:1014A800C4F30A04C2F8B001C2F8B411C2F88CC17E
:1014B800C2F89071C2F89C61C2F8A451C2F8A84160
:1014C800C2F8BC3192F8E43192F8E301B2F8E211C3
:1014D800DB0043EA5013C1F38A01C2F8C431C2F8F1
:1014E800C011012081E7D3237AE700BF3023002011
:1014F80010B5064CD4F82C3204F50370984702282E
:1015080006BF012084F83002002010BD30230020DF
:1015180038B503788B4213D90A4C94F830320D460B
:101528004BB1D4F8583204F5037104F50D7098479F
:10153800002384F8303204EB4504B4F8340238BD93
:10154800002038BD30230020F8B5634B634C1D687C
:10155800EB07064615D594F85C3294F85D229A425A
:1015680035D1D4F86032B34202D85D4B00221A70EC
:10157800D4F89802301A002822DD012084F89C0251
:10158800F8BD15F4005543D1D4F8883204F520701D
:101598009847C7070AD5534A94F86630C0F3400104
:1015A80010F00A0F917023D0052B62D04307D8D5CD
:1015B800012384F89D32D4F86032B342D8D8D4E7F6
:1015C80094F89C020028DBD194F89D02F8BDD4F869
:1015D80064024449424A84F85D32304400250123BC
:1015E800C4F8600201208D70137084F89C02C7E76C
:1015F800D4F86422052B1644C4F860624FD0420721
:1016080065D4374B012201201A7084F89C02B7E791
:10161800B4F868320BBBB4F86A32F3B9B4F86C3278
:10162800DBB9B4F86E32C3B9B4F87032ABB9B4F8F8
:10163800723293B9B4F874327BB9B4F8763263B9BC
:10164800B4F878324BB9B4F87A3233B9B4F87C329A
:101658001BB9B4F87E32002B83D0D4F86432214908
:101668001F4A33440020C4F8603201238870137085
:101678007EE794F86730A26E04EB43010133B1F8BA
:101688006C70A1F86C50D21B110903F00F03A4F879
:101698008C10410784F86730A26689D461E794F812
:1016A8006720A36E04EB420103F2FF33B1F86C50DC
:1016B80001325B1B02F00F0240F2FF3584F867200D
:1016C8001A09A1F86C50A366A4F88C2097E70123A7
:1016D80084F89D3295E700BF08520020302300208F
:1016E800CD710020000000200020704700207047C6
:1016F80001207047024B03EB4101B1F8A00270478B
:1017080030230020044B93F8C40218B1002283F858
:10171800C4220120704700BF30230020024B03EB96
:101728008101B1F8C80270473023002030B4024666
:10173800002305251E2400E00232032BD4BF00211C
:10174800012100F813100133042B04D0122B54701C
:10175800F2D130BC70475570EEE700BF024B036012
:1017680043608360C3607047E803D007024B03EB14
:101778004101B1F86802704730230020024B03EBA7
:101788004101B1F86802704730230020DD4B93F81F
:1017980000230AB9002070472DE9F04F93F802237F
:1017A80093F801430021012A8BB083F8001300F05D
:1017B800EF8093F80853023D15F0FF0500F09D8176
:1017C80003F5427005444FF6FF7210F8011B521AD8
:1017D800A84292B2F9D1110A1C4494F8070388422E
:1017E80040F0878194F80613D2B2914240F081818B
:1017F80093F82823202A40F07C8193F80303821C65
:101808000192821D029200F10802039200F10A027D
:10181800049200F10C02059200F10E02069200F10A
:101828001002079200F11602089200F1180200F166
:10183800040A00F1120800F11407099200F11A0BCA
:10184800019A53FA82F1029A53FA82FC039A9CF89D
:1018580009939CF808C353FA82F20192049A53FA46
:1018680082F6059A53FA82F5069A53FA82F4079A91
:1018780053FA82F2029253FA88F20392089A91F884
:10188800098391F8081353FA82F218440592099AC9
:1018980053FA8AFE53FA87F790F809A390F80803D9
:1018A800049753FA82F29EF8097306929EF808E3A9
:1018B800019A00EB0A2001EB08210EEB072E92F8A3
:1018C800098392F80873C3F8C80296F809230192AD
:1018D8000CEB0920C3F8D40295F809C396F80863FD
:1018E80095F80853019AC3F8CC1206EB0226049A1D
:1018F8000299C3F8D0E292F809E392F8082391F824
:10190800099391F808030399019602EB0E22C3F894
:10191800F022059A94F809A3019E94F80843C3F8A5
:10192800DC6207EB082700EB092091F8098391F89E
:10193800081392F80963C3F8E80253FA8BFB92F88C
:101948000803069AC3F8D87205EB0C2504EB0A24A1
:1019580001EB0821C3F8E052C3F8E44292F80953B6
:10196800C3F8EC129BF8094392F808139BF8082374
:1019780000EB0620C3F8F40201EB052102EB042278
:101988000120C3F8F812C3F8FC220BB0BDE8F08FB1
:1019980093F80303B3F804831D18821C019253FAC9
:1019A80082F295F8086395F8097392F809C392F8DA
:1019B80008E300F1040A53FA8AF2851D46442946D1
:1019C8000295B64492F8095392F8086353FA81F2E3
:1019D8000EEB072E00F108070397764453FA87F7B2
:1019E80092F808E392F8092306EB0C2600F10A01A5
:1019F80097F809C30491B64497F8086353FA81F736
:101A08000EEB052500F10C0197F8098305912E448A
:101A180097F8085353FA81F706EB022600F10E01F6
:101A280097F808230691354453FA81F605EB0C25FF
:101A380000F1100153FA81FE154496F8082397F82F
:101A4800097396F809C39EF80863079105EB082502
:101A580000F112082A4453FA88F502EB072200F134
:101A6800140795F809939EF809E3324495F808633A
:101A780053FA87F500F1160102EB0C22324495F86F
:101A880008C3089153FA81F602EB0E2200F11801FF
:101A980095F809530991624496F808E396F809C342
:101AA80002EB092253FA81F6724400F11A0B96F8F8
:101AB80008E396F8096302EB052253FA8BF51C44F8
:101AC800724495F808E394F8079395F8095394F845
:101AD800064302EB0C2296440EEB062E0EEB052E67
:101AE80004EB09291FFA8EFE1FFA89F9F1453FF424
:101AF800A7AE00200BB0BDE8F08FFF214FF6FF72B4
:101B08006AE600BF30230020504B5B68C3F308032C
:101B180070B4CBB9EFF31183B3B94D4A4D4E4E4D66
:101B28001368AC6811688B42FAD131688C42F7D8D7
:101B38004A4A15684FF47A7101FB05F2141BB4FB8D
:101B4800F5F401FB034321E0EFF31181102383F344
:101B5800128803F1E023C9B29D681A6812F4803F25
:101B68003F4A1EBF012414609D68394B1E681368E4
:101B780081F31188394A14684FF47A71334401FBB0
:101B880004F2521BB2FBF4F201FB0323354AD2F8EC
:101B98002C13591AB1F5FA7F14D90021C2F82C3345
:101BA80082F8301382F83113C3B2042B26D0202BCD
:101BB80024D092F8281309B9552838D0814216D173
:101BC800002109E092F8311399B992F83013C2F85C
:101BD8002C33C3B20029E8D092F801035418013815
:101BE800814284F808331DD0013182F8301370BC6B
:101BF8007047013982F8311370BC70470021022404
:101C08004FF6FF7082F80343A2F804035418581ED5
:101C1800814282F8283382F8013382F8021384F86B
:101C28000833E1D1012382F8003370BC70470124E6
:101C38001F2582F82803A2F8041382F8083382F8D3
:101C4800024382F8034382F80153CDE700ED00E038
:101C5800F83D0020003E002010E000E0FC3D0020A0
:101C6800F43D00203023002070B540F2014444EADE
:101C780080041AF021FA0C4E054696F8543306EB08
:101C88008303D3F83403E3070AD51AF091FE6408F6
:101C980005F1340507D01AF00FFA8542FBD8ECE7B6
:101CA8001AF080FEF3E770BD302300200D49B1F82B
:101CB800553330B508224AF2010580EA030414F0CE
:101CC800010F4FEA530318BF6B4002F1FF3218BFF0
:101CD8009BB212F0FF024FEA5000EED1A1F8553343
:101CE80030BD00BF3023002008462CF021BD00BFC6
:101CF8000FB400B583B004AB054953F8042B019326
:101D080000201DF029FA03B05DF804EB04B0704719
:101D1800F11C00080EB470B583B007AC0646482025
:101D280054F8045B2CF004FD20202CF001FD304613
:101D38002CF0EAFC3A202CF0FBFC2A462346094901
:101D4800019400201DF008FA04460A202CF0F0FC4B
:101D5800054A136803341B1B136003B0BDE87040C9
:101D680003B07047F11C0008487F0020F8B50F4BFE
:101D7800D3F85853D3F85C43D3F86063A9B1831EF2
:101D880000EB410727441E4404441D4434F9022B48
:101D980036F9023F35F9020F134403EBD373A0EB76
:101DA80063002CF080FDA742F0D1F8BD302300205D
:101DB800F0B5184E002383B004460821D6F8640312
:101DC80086F89D3002AD1AF0BDFBD6F86403812178
:101DD8001AF0B8FB8923D6F8646325F8023DE71D9D
:101DE80014F8010B3246294627F026FFBC42F7D1EA
:101DF800BDF806301A0A52FA83F3C3F1FF039BB207
:101E08003246D8B20021ADF8063027F015FF03B0EE
:101E1800F0BD00BF3023002038B5384B5B68C3F3F2
:101E28000803CBB9EFF31183B3B9354A354D364CB6
:101E38001368A06811688B42FAD129688842F7D8DC
:101E4800324A11684FF47A7202FB01F4241AB4FB87
:101E5800F1F402FB034421E0EFF31181102383F333
:101E6800128803F1E023C9B298681A6812F4803F17
:101E7800274A1EBF012010609868214B1D6813680F
:101E880081F31188214A11684FF47A7404FB01F236
:101E98002B44121AB2FBF1F204FB03241D4DD5F8B2
:101EA8009830E31AB3F5FA6FC4BF002385F89C3065
:101EB80095F89C301BB90023EB60012038BD002247
:101EC8001549E86827F0F8FA95F89C3073B9134B70
:101ED8001B781B2B04D1D5F86833114AE31AD38039
:101EE8000023C5F86843EB60012038BD0D48FFF7B3
:101EF8005FFF002385F89C30E9E700BF00ED00E0B4
:101F0800F83D0020003E002010E000E0FC3D0020ED
:101F1800F43D002030230020CC23002095610020D0
:101F2800A0610020A843030838B50D4C05460146BA
:101F3800D4F86C031AF006FBB4F87003082380EA9F
:101F4800052041F2210210F4004F4FEA400018BF6B
:101F58005040013B80B2F6D1A4F8700338BD00BFF1
:101F68003023002070B582B004461AF0A5F8964ACE
:101F7800D2F8743303F24C4383420CD392F878338B
:101F88004BB1022B8ABF92F8CD010520023098424E
:101F98000DDC02B070BD01210023C2F8740382F881
:101FA800CC4182F8781382F8C83102B070BD591C50
:101FB800C9B288421344D4BF0125002582F878139A
:101FC80083F8CC4182F8C851E3DC92F8CE51002363
:101FD800162D82F87833DCD06B00290648BF83F0D1
:101FE800D503DBB213F0800F4FEA430318BF83F029
:101FF800D503DBB213F0800F4FEA430318BF83F019
:10200800D503DBB213F0800F4FEA430318BF83F008
:10201800D503DBB213F0800F4FEA430318BF83F0F8
:10202800D503DBB213F0800F4FEA430318BF83F0E8
:10203800D503DBB213F0800F4FEA430318BF83F0D8
:10204800D503DBB292F8CD4113F0800F4FEA43037A
:1020580018BF83F0D503022CDBB247D95B490C4487
:10206800023111F8016F734013F0800F4FEA4303F8
:1020780018BF83F0D503DBB213F0800F4FEA430398
:1020880018BF83F0D503DBB213F0800F4FEA430388
:1020980018BF83F0D503DBB213F0800F4FEA430378
:1020A80018BF83F0D503DBB213F0800F4FEA430368
:1020B80018BF83F0D503DBB213F0800F4FEA430358
:1020C80018BF83F0D503DBB213F0800F4FEA430348
:1020D80018BF83F0D503DBB213F0800F4FEA430338
:1020E80018BF83F0D5038C42DBB2BAD1104490F804
:1020F800CB1199427FF44DAF7A2D2AD022D97C2D6D
:1021080027D07D2D7FF445AF92F8D131042B4AD0EA
:10211800052B34D0032B7FF43CAF92F8D33192F8DF
:10212800D2212B482B49202BA8BF2023092AA8BF3E
:10213800092280F8292180F82A310A724B722CF082
:102148009FF826E7282D7FF424AF234B01221A702D
:102158001FE7224A136E572B3FF71BAF2049214830
:102168000D684C680821995413440121C3F80150A3
:10217800C3F80540136E01700933136609E71A4B5B
:102188001B78EBB1124C012194F8292104F59070C9
:1021980032F08AF8154B164A1B6801212D3384F852
:1021A8002B111360F5E6104B1B78002B3FF4F1AEB2
:1021B80002A9002301F8013D06482AF0DDFCE8E603
:1021C8002CF05EF8E5E600BF30230020FC24002058
:1021D800906D0020BC6E00208D6D0020D46E002014
:1021E800012500208E6D0020707E0020F83D002023
:1021F800CC7B0020F8B519F05FFF274E054600F1AB
:10220800FA07344696F8543306EB8303D3F83403BD
:102218001AF032FC38BB94F8543304EB8303D3F838
:1022280034031AF029FC28B319F046FFD4F8803398
:10223800401B9842C4F87C032BD805F5FA7594F82E
:10224800543304EB8303D3F834031AF015FCB0B904
:1022580094F8543304EB8303D3F834031AF00CFCDA
:1022680090B1002005E019F027FFB842CAD94FF015
:10227800FF30F8BD19F020FFB842CCD9F7E719F0C4
:102288001BFFA842DBD9F2E719F016FFA842DFD9F5
:10229800EDE70120EDE700BF3023002038B500242A
:1022A80005460470FFF7A6FF431C11D0012803D18F
:1022B8002B78A040184328700134082CF2D1054A25
:1022C8002B7892F884134B4082F88433012038BD70
:1022D8000020FCE7302300202DE9F843204C214D55
:1022E800266807460236A84695F8543305EB83035B
:1022F800D3F834031AF0C0FB10BB19F0DDFE00F16F
:10230800270619F0D9FE8642FBD800252C464FF047
:10231800010998F8543308EB8303D3F834031AF00F
:10232800ABFB18B109FA05F31C43A4B2092D06F159
:1023380034060BD019F0C0FE8642FBD80135E8E719
:1023480023689E42D0D80020BDE8F88340F20123DC
:102358002340B3F5007FF6D164083C700120F3E711
:10236800F83D00203023002037B502ADFF2305F8E3
:10237800013D04462846FFF7AFFF00B91CB99DF898
:10238800070003B030BD013CF4E773B5204C0022D0
:1023980084F8552384F8562384F8852384F8862303
:1023A8000144FF228DF807200546CEB22846FFF7E4
:1023B80093FFF8B115F8010BFFF778FCEBB2B342C5
:1023C800F4D194F88733EBB11248FFF785FF88B151
:1023D8001148FFF781FF68B10DF10700FFF77CFF97
:1023E80040B1B4F85523B4F885339A4202D0C223D9
:1023F8008DF807309DF80700A0F130035842584186
:1024080002B070BD0DF10700FFF766FFF2E700BFED
:1024180030230020B5260020B626002070B5194CC0
:1024280094F854330D4604EB8303013D0646EDB2A0
:10243800D3F834031EF000FA0135002384F855332D
:1024480084F8563335443078FFF70EFC16F8010B44
:10245800FFF72CFCAE42F6D194F887333BB194F8E1
:102468005503FFF701FC94F85603FFF7FDFB94F8BA
:10247800543304EB8304D4F83403BDE870401EF0F1
:1024880035BA00BF3023002013B5FE23ADF8043061
:1024980000238DF8063003788DF80730044613B909
:1024A80001238DF8063004210DEB0100FFF7B6FF7C
:1024B8000220FFF759FFFF280CD121786068FFF749
:1024C800ADFF2820FFF750FFA0F1300358425841D4
:1024D80002B010BD0020FBE737B505460846144694
:1024E800FFF7D2FF78B10123022101A88DF805304A
:1024F8008DF80450FFF792FF2046FFF735FFA0F153
:1025080030035842584103B030BD07B50E4B02683E
:10251800934317D0FF230421ADF8043043788DF896
:10252800063083788DF807300DEB0100FFF776FF52
:102538000220FFF719FFA0F130035842584103B0B9
:102548005DF804FB0120FAE700FFFF0037B50546F8
:1025580008460C46FFF7D9FF60B123788DF8045080
:10256800022101A88DF80530FFF758FF217860682F
:10257800FFF70BFF03B030BD10B5064CD4F86C0361
:1025880019F0DCFF0028F9D0D4F86C03BDE810403E
:1025980019F0CCBF3023002010B5FFF7EDFF0A4A31
:1025A800B2F88B3383EA00239BB2082141F221045D
:1025B80013F4004F4FEA430318BF634001399BB23D
:1025C800F6D1A2F88B3310BD3023002038B5064D64
:1025D800002455F8340001342DF054FF2DF0EBFFA2
:1025E8002A2CF6D138BD00BFB04303082DE9F04FBF
:1025F800002489B0834692460D4626464FF01909B5
:102608004FF46178BAF1000F22D004EB84030AEB8F
:102618000307052239462846079331F01DFE3A790B
:10262800079B19FB02820492FA781AF8033019FB07
:1026380002820392BA780292B0FA80F67A7801920E
:1026480076090093104A2346314658462EF096F8EC
:102658002B790D4A19FB03830493EB7819FB038349
:102668000393AB7802936B78019315F8053B0093BD
:1026780031462346584601342EF098F80A2CC1D129
:1026880009B0BDE8F08F00BF337303082DE9F047A8
:10269800344F8CB00646894615460024C4EBC40363
:1026A80009EB0302106891889279089040F3074873
:1026B800ADF824108DF82620B8F1000F4AD0002D6F
:1026C8004DD02B440AA918689A880A909B79ADF8CE
:1026D8002C2008A807228DF82E3031F0BDFD9DF87A
:1026E8002E3006939DF92D3005939DF92C300493D7
:1026F8009DF82B3003939DF92A300293B0FA80FAA3
:102708009DF8293001934FEA5A1A9DF82830009312
:102718003A462346514630462EF030F89DF826308A
:1027280006939DF9253005939DF9243004939DF86F
:102738002330CDE902839DF8213001939DF82030A4
:1027480000933A4623465146304601342EF02EF87F
:10275800102CA3D10CB0BDE8F0472DF02CBFAA4631
:10276800DCE700BF497303082DE9F04FDFF818B123
:1027780089B08046894616460D4614460027002E25
:102788006DD00C222146284631F066FD94F90B30B5
:10279800049394F90A300393B4F908300293B4F916
:1027A80006300193B0FA80FAB4F9043000934FEA86
:1027B8005A1A3B465A46514640462DF0DFFF95F9D6
:1027C8000B30049395F90A300393B5F90830029356
:1027D800B5F906300193B5F9043000935A463B46E3
:1027E8005146404601372DF0E1FF082F05F10C0551
:1027F80004F10C04C3D10024DFF890A0254686B369
:102808000027012303FA07FB325959F804305340D3
:102818003BEA030314BF0123002312EA0B0F0793BB
:1028280006D000972B465246079940462DF0A6FF42
:1028380059F804301BEA030F06D000972B4652467E
:10284800079940462DF0B2FF01370E2FD9D1013537
:10285800082D04F10C04D2D109B0BDE8F08FB246BE
:10286800ADE73746012359F80420BB40134206D090
:1028780000972B465246012140462DF097FF01371D
:102888000E2FEFD1E3E700BF667303087E730308DA
:102898002DE9F04F064685B088461446894692468B
:1028A8000027002509EB050393F8C0300393002C9B
:1028B80064D00AEB0503039A93F8C030D01AD0F11C
:1028C800000B4BEB000BCDE900532E4A3B46594613
:1028D80030462DF053FF039B2A4ACDE90053594651
:1028E8003B46304601352DF061FF062DDAD1013720
:1028F800062F09F106090AF1060AD2D1DFF884B0D9
:1029080008F1E40A00251AF8019B002C38D0631955
:102918005A4693F8E430A9EB03014F424F41CDE901
:1029280000533946062330462DF028FFCDE90059DB
:102938000623144A3946304601352DF037FF0B2D52
:10294800E1D198F8F0506CB194F8F0300193EA1A9C
:1029580054425441002300930A4A07232146304633
:102968002DF00CFF0023009301950723054A21460B
:1029780030462DF01BFF05B0BDE8F08FA346AAE74F
:102988002746D3E7937303082DE9FF47DFF868A0CC
:10299800814690460F4614460025B8F1000F28D00E
:1029A80004222146384631F057FCE3780293A37895
:1029B8000193B0FA80F62388009376092B46524695
:1029C800314648462DF0DAFEFB780293BB78019336
:1029D80037F8043B009352462B46314648460135AA
:1029E8002DF0E4FE102D04F10404D6D104B0BDE8A6
:1029F800F0874646E8E700BFA77303082DE9F74FBD
:102A0800DFF864A081468B4617460E46002447B37C
:102A180007EB840804224146304631F01DFCB8F823
:102A280002300193B0FA80F537F8243000936D092D
:102A380023465246294648462DF0A0FE7388019346
:102A48003BF8243000935246234629464846013431
:102A58002DF0ACFE042C06F10406D8D103B0BDE875
:102A6800F08F3D46EAE700BFB97303082DE9F04F40
:102A7800834689B092460D46144600264FF0190940
:102A88004FF46178BAF1000F45D00A222146284652
:102A980031F0E2FB23890793E388069323790593B2
:102AA800E3780493A3781D4A19FB0383039363789F
:102AB80019FB0383029323780193B0FA80F76379B3
:102AC80000937F093346394658462DF057FE2B8927
:102AD8000793EB8806932B790593EB780493AB78EF
:102AE8000E4A19FB038303936B7819FB0383029344
:102AF8002B7801936B790093394633465846013653
:102B08002DF054FE0F2E05F10A0504F10A04B9D17F
:102B180009B0BDE8F08F5746D9E700BFCA7303086C
:102B28007FB5094B0493094B0393094B0293094B57
:102B38000193094B0093094A094B0A490A482DF0A9
:102B4800BDFD07B05DF804FB317403083674030853
:102B58003E7403084774030853740308EE730308AC
:102B6800BB660020FB73030806740308044B054A80
:102B780005491B681268096804482DF09FBD00BF0D
:102B8800B4F7FF1FB0F7FF1FACF7FF1F5974030816
:102B980038B50B4B03EBC0040D4694F85022094896
:102BA80003EB8203D3F874112DF057FC94F85632D6
:102BB8002BB1691C0448BDE838402DF04EBC38BD27
:102BC8008C4303082D7A0308EAB203082DE9F84379
:102BD8002DF0F1FC1448154D154E164FDFF85C80AA
:102BE8002EF022F800242B7D072194FBF1F1C1EB94
:102BF800C10206EB8303A21A013201313846D3F829
:102C080074912DF02AFC6A7D49464AB10A482DF094
:102C180055FD01340C2C05F11C05E4D1BDE8F88301
:102C280040462DF04BFDF4E76D74030804000020C6
:102C38008C43030872740308847403082C7A03080D
:102C480070B5374C37482DF01DFC94F82530012B12
:102C580060D13548354E2DF0E7FF94F82A3013B18E
:102C680094F8273013B194F8263043B9B6F8985041
:102C78002F482DF007FC8DBB2E482DF0D5FF2E4890
:102C88002E4D2DF0FFFB94F8293005EB8303D3F884
:102C980008032DF013FDB6F8941029482DF0DDFB3C
:102CA80094F826302BBB27482DF0BEFF26482DF080
:102CB800E9FB94F82A3005EB8305D5F810032DF0CD
:102CC800FDFCB6F8961021482DF0C7FB94F82A3081
:102CD8009BB91F48BDE870402DF0A6BF4FF47A722B
:102CE800B5FBF2F102FB115292B21A482DF0E6FC44
:102CF800C5E719482DF098FFD8E794F8273023B98D
:102D08001648BDE870402DF08FBF1548BDE87040EB
:102D18002DF08ABF1348BDE870402DF085BF00BF75
:102D2800CC5F00208B740308A1740308586000204E
:102D3800A8740308C3740308D57403088C430308F4
:102D4800EB7403080875030818750308337503083E
:102D580056750308CD7403080F7503080975030831
:102D6800107503085B7503082DE9F04F354C87B0E3
:102D78008046354A2378608802EB8303D3F8749140
:102D88001CF094FBD0E901A30493304B93F88D33E6
:102D980013B9CDF810A09A4608F04003DFF8B8B090
:102DA80005930026A379002B08BF01239E4206DB6A
:102DB800274B08349C42DCD107B0BDE8F08F62791C
:102DC800237906FB0323049A0136D55CBAF1000F78
:102DD80011D1B5FA85F77F090DB305F00F032D0959
:102DE80040350293CDE900654B465A463946404680
:102DF8002DF0DCFCD6E71AF80330EA1A574257419F
:102E0800C3B103F00F021B0940330292CDE90063FE
:102E18005A464B46394640462DF0B0FCDCE7059B48
:102E2800002BBFD100964B460A4A394640462DF042
:102E3800BDFCB7E700964B46064A394640462DF09A
:102E48009DFCC9E7DC4503088C43030830230020B8
:102E5800944603087F750308697503082DE9F04F48
:102E680091B00025DFF89CB1DFF8B0A1DFF89891A8
:102E78000795A84608A9E8B208F04EF89DF828304A
:102E8800002B6AD0022D0C9C40F09780002C00F09B
:102E98008B8007EE904ADFED576AF8EEE77A86EE08
:102EA800A77AFDEEC77A17EE906A99F88E43089BC9
:102EB800012C7BD996FBF4F41A4602214E482DF0DA
:102EC800CCFA0D9A002A00F08C8041F2883002FB7F
:102ED80004004FF47A73B0FBF3F00F9B002B00F063
:102EE800828041F2883103FB04114FF47A7CB1FBF4
:102EF800FCF1062D03D0079F0F44804407979BF8E9
:102F080003C0BCF1000F70D04FF47A7C0E9FB7FB62
:102F1800FCFCCDF810C04FF00A0C91FBFCFE0CFB3A
:102F28001E11CDE902E190FBFCF10CFB1100CDE98B
:102F38000010214631482DF0C1FB022D08D199F827
:102F48008E33012B04D9324609992D482DF0B6FB52
:102F5800342303FB05A30022DA620135152D89D13C
:102F6800284BDB78EBB12849D1F89823D1F89403A2
:102F7800D1F89C1352094FF47A73B0FBF3F323484A
:102F88002DF09CFB0798079B0A2293FBF2F302FBA8
:102F9800130798FBF2F1009702FB11821C482DF0F1
:102FA8008DFB11B0BDE8F08F26467EE7099A1948D7
:102FB80002212DF052FA344683E75CB107EE904ABD
:102FC800DFED0C6AF8EEE77A86EEA77AFDEEC77AAF
:102FD80017EE904A089A084829462DF03EFA00262E
:102FE8006FE7104679E7194683E721460A482DF02E
:102FF80065FBA2E70024744993750308B5750308B7
:10300800D9750308B466002030230020E975030849
:1030180009760308A2750308E57503085401002022
:10302800F0B54A4B4A48196891B04FF47A73B1FB2E
:10303800F3F12DF043FB05A81BF066FD58B1454A96
:1030480005A90023B2F9002008A81CF063F908A913
:1030580041482DF033FB414B41491A78414B0988CF
:103068004148424C03EB8203414AD3F81C3312789F
:103078002DF024FB48213F482DF0EFF92DF09BFA65
:103088003D4A3E493E482DF019FB3E4A3E4B3F48DB
:10309800D31A0021B4F8A0232DF010FB3C49D1F835
:1030A800D821002A42D007EE902ADFED3A6AB8EE1E
:1030B800E77AC6EE877AFDEEE77ACDED037AB4F8C3
:1030C800A2335BB107EE903ADFED326AF8EE677A29
:1030D80086EEA77AFDEEC77A17EE903AD1F870110E
:1030E80059B107EE901ADFED2B6AF8EEE77A86EE13
:1030F800A77AFDEEC77A17EE901AB4F8A403264E05
:10310800264F6428CDE900310146039B2448A8BF17
:1031180064212DF0D3FA23482DF0B4F9224B1C6812
:1031280001252CB92DF047FA11B0F0BD0392C6E77E
:1031380094FAA4F3B3FA83F305FA03F256F82310CA
:10314800384624EA02042DF088F9EAE7F83D002021
:1031580037760308E87E002051760308B46A002019
:103168000C6900208C430308627603083023002092
:10317800126900208876030800200010000800006B
:10318800987603080000040800F00308BC760308DA
:103198000000002000247449C46F03082C7A030837
:1031A800F67603083C770308586A0020F0B58BB020
:1031B80005462DF022F800286ED03849002201205B
:1031C8000BB0BDE8F040FFF7CFBA2D2903D0A1F12D
:1031D8003003092B5BD8052C04DD0BB0BDE8F040AB
:1031E8002DF068BA28461BF05DFD0AAB621C03EBA4
:1031F800440424F80C0C15F8013F303B092BFAD98C
:10320800144629780029E0D1062CE6D1BDF91C30F6
:103218009AB2072AE1D8BDF91E40A4F2EE2292B272
:1032280040F2DC508242D8D8BDF92050A5F2EE22F7
:1032380092B28242D1D8BDF92260B442CDDCB54207
:10324800CBDBBDF9247007F1640292B2C82AC4D856
:10325800BDF926001128C0DCDFF848C00C2202FBAB
:1032680003C240B2A2F8AC43A2F8AE53A2F8B063CE
:1032780082F8B27382F8B303CDE90370CDE9015641
:103288000094074A08462DF091FA0BB0F0BD2029AA
:10329800A3D101352246B3E70446B2E7D826002079
:1032A800667303083023002038B5114D04462046C4
:1032B8002CF0A3FF60B10F4B0F4893F998154B1CE6
:1032C8000ABF0E4BC9B25978BDE838402DF0F6B99F
:1032D80020461BF0E7FC052804D8C0B207F0BCFC68
:1032E8002C46E4E705210648BDE838402DF0C4B96E
:1032F800BCB303080000002052770308B46600201E
:1033080061770308052838B50D460ED8074C84F8B0
:1033180098050748FFF7C8FF2DF04DF929461020FA
:103328002DF04EF9FF2384F8983538BD00000020B1
:10333800BCB3030838B5114D044620462CF05DFF98
:1033480060B10F4B0F4893F999154B1C0ABF0E4BF0
:10335800C9B21978BDE838402DF0B0B920461BF045
:10336800A1FC022804D8C0B214F014FC2C46E4E7EF
:1033780002210648BDE838402DF07EB9BCB30308E9
:103388000000002056770308B4660020667703081B
:103398002DE9F74F3C4B3D4C1A785B78009084F848
:1033A800992584F898352DF01BFE1CF06DF8002542
:1033B800DFF8DCB0A8460D27354B00996F43DE19BE
:1033C800D6F8009048461BF01BFC00283DD0B8F109
:1033D800000F01D02DF0EFF849462E485F442DF03C
:1033E8003CF8002130462DF0DBF82DF0E4F83B796D
:1033F80003F01803082B3CD0102B3ED030462DF09C
:103408006CF90D2303FB05B3B3F809001CF04EF863
:103418000746C0B130462CF03DFFD7E9012182466E
:103428000244014430462CF0BEFF60B90190494681
:1034380019482DF012F87968019A514430462DF058
:1034480031F82DF0B8F808F101080135B5F5A37F7A
:10345800B1D12DF0AFFDFF2384F8993584F8983564
:10346800B8F1000F0DD10D4803B0BDE8F04F2DF0B5
:1034780003B90B48FFF75EFFC0E70948FFF714FFE1
:10348800BCE703B0BDE8F08FB46600200000002060
:10349800604E03089FB203088177030891770308F9
:1034A800BCB30308022838B50D460ED8074C84F87B
:1034B80099050748FFF73EFF2DF07DF829460820BB
:1034C8002DF07EF8FF2384F8993538BD00000020E0
:1034D800BCB303082DE9F34105462CF08EFE0446E3
:1034E80020B12DF0E7F802B0BDE8F081284601AA26
:1034F8002949DFF8A48030F01AFE274605462646FB
:1035080075B9022CEDD1A7F57A73B3F57A7F1ED978
:103518004FF4FA624FF47A7120482DF0C3F8E2E7CD
:103528004CB1012C0ED001AA4146002030F0FFFD1D
:1035380001340546E4E7284622F02AFD431C0646E6
:10354800F1D1D0E728461BF0ADFB0746EBE7B8B250
:103558002EF0E4FCFF2EBCEEC00A114B0BD1114A31
:10356800F8EE407A1278AA4212DC10EE101A0E48D1
:103578002DF0A4F8B7E7F8EE407A03EB860310EED7
:10358800102A31460948C3ED007A2DF097F8AAE7CA
:10359800E3EC017A0135E6E7B0A70308027B0308EC
:1035A80038270020A8640020AB7703089E7703081B
:1035B8002DE9F04F014691B006468648864D2DF01C
:1035C8007DF8864B8649C3F800D000232B70854BC5
:1035D800097840241C7006220123304606F03CFE80
:1035E8000A2018F019FE2B78DBB20C2B40F2ED8084
:1035F8009DF80C90B9F1FE0F2ED0B9F1FF0F15BF51
:103608000F241524002601269C4240F0DE80611E0E
:10361800C9B2684625F016F910AB1C4414F8413CB1
:10362800834240F0CE8006F1FF38B8F1010F9DF8D3
:103638000D4013D904F01F07650961374C466A48E5
:103648002CF020FF022E71D0013D042D6AD8DFE84E
:1036580005F00A5D616965000226D5E79DF80E70E0
:103668009DF80F50EBE761482DF0DEFA6048DFF86F
:10367800D491DFF8D4B12CF005FF00254FF0030AF0
:103688001DF80510484601352CF0E7FE0C2D55D1E4
:103698002CF091FF022E5BD06422B4FBF2F102FB06
:1036A80011423B46D2B2C9B252482DF007F85FFA30
:1036B80088F8B8F1010F7BD84F4A504B9DF810108D
:1036C8004F48504D00290CBF114619462CF0F6FF03
:1036D8009DF811104C4B4D4800290CBF294619463E
:1036E8002CF0ECFF022E63D19DF8124048482CF0D4
:1036F800C9FE9CB3FF2C41D00A22B4FBF2F102FBB5
:103708001142D2B243482CF0D9FF2AE042482DF0AA
:103718008BFAABE741482DF087FAA7E740482DF030
:1037280083FAA3E73F482DF07FFA9FE700230DF1C6
:103738001F008DF83F302DF077FA97E795FBFAF3E5
:1037480003EB43039D429BD158462CF09BFE97E721
:103758003A46214634482CF0B1FFA8E728462DF018
:1037680063FA9DF8134031482CF08CFE54B1FF2CBD
:1037780021D021462E482CF0A1FF06E02D482DF03F
:1037880053FAEEE71F482DF04FFA1E4D1E4E294FF3
:1037980000240DEB04031A7D8AB1FF2A14BF3246B8
:1037A8003A462146244801342CF088FF042CF0D1F5
:1037B80011B0BDE8F08F1F482DF036FAE5E72A462C
:1037C800EFE71E482CF058FFF2E71D482DF02CFAC1
:1037D800EEE700BFDA77030862670020546700202D
:1037E800A864002063670020EB770308F6770308D6
:1037F800247803083B780308C3770308BA770308DB
:1038080072780308CA770308837B0308897803085A
:1038180090780308A4780308FD770308057803085F
:103828000D7803081C78030857780308AC78030858
:10383800EBB20308CE770308BC780308C7780308FF
:10384800D7780308367803087EA503082DE9F74FD3
:1038580005462CF0D2FC044618B9374B9B78042B4C
:1038680004D82CF027FF03B0BDE8F08F01AA334934
:10387800DFF8E080DFF8E090DFF8E0A0284630F0DD
:1038880056FC0127264640B92D4B2E4A1B689B1A29
:103898002D4A18BF01231370E5E75EB922F078FBC3
:1038A800421C0446DFD001AA24490020013630F02A
:1038B8003EFCE8E71BF0F6F92F28054636D807B393
:1038C80006F018FF062D0CD1052018F0A5FCDAF833
:1038D80000301B0126D5FF2C20D0E0B2FFF768FE90
:1038E80009E0012018F098FC18490123EAB2097888
:1038F800E0B206F0B1FC294648462CF0DFFE00276E
:10390800D1E70628F0D1E2E7FFF752FE9BF8003036
:10391800F8B2834207F10107F6D8ECE70027DFF891
:103928002CB0F3E70A482DF07FF9E4E72F21404651
:103938002CF0A2FEB7E700BF18530020B0A7030879
:103948003453002065980008C85F0020A864002050
:10395800E078030800790308EF780308085200208C
:1039680013B5204C237C022B2FD101230DF1070224
:10397800F52104F1100019F055FA40B39DF807102D
:1039880019482CF09BFE237C022B22D101230DF138
:1039980007029A21154819F045FAE0B19DF8071079
:1039A80013482CF08BFE237C022B16D101230DF13A
:1039B80007029B210D4819F035FA80B19DF80710D0
:1039C8000C482CF07BFE02B010BD0021D8E7014660
:1039D800D6E70021E4E70146E2E70021F0E70146E7
:1039E800EEE700BF804B002020790308904B0020B1
:1039F800337903084679030838B50C4C05460C485A
:103A08002CF040FDD4F828041AF0E6F9D4F82C0478
:103A180007F064FF2EF0F6FA064B074A25B107496E
:103A280007480860DA6038BDDA60FCE73023002018
:103A38005979030800ED00E00400FA05FC9F002016
:103A4800EFBEADDE38B50A4DD5F828041AF0C4F932
:103A5800084B00241C7085F83044C5F830452EF01A
:103A68005FFC2046FFF7C8FFC5F8284438BD00BFF3
:103A780030230020A469002008B5074B93F83425AB
:103A880022B193F835350BB917F0D2F91AF062FD67
:103A98000020BDE80840AFE7302300200120ABE755
:103AA8002DE9F04F4A4085B098461D4FD34306464E
:103AB8000D4600240393204611F034FB0E9B184258
:103AC80028D0039B174ADFF860A0034214BF4FF0C9
:103AD80001094FF0000910EA050302934FF00C03A7
:103AE80003FB04234946D3F808B0CDF800B014BF4F
:103AF8003A465246434630462CF040FE029ACDF8EC
:103B080000B04346002A14BF52463A46494630465A
:103B18002CF04CFE0134172CCDD105B0BDE8F08F48
:103B2800F0790308BC4603086579030870B50546B3
:103B38002FF000FD064600B3134C94F835359BB1C1
:103B480004F236502FF0F6FCB042024605D1294661
:103B580004F2365030F0D4FB60B10C4A0C490D48E1
:103B6800BDE870402CF088BD0422294604F2365086
:103B780030F0D8FB012384F8343504490648BDE801
:103B880070402CF09BBD00BF302300206628002029
:103B98006C7903087C790308A679030870B5054693
:103BA8002FF0C8FC064600B3134C94F835359BB18A
:103BB80004F23B502FF0BEFCB042024605D1294624
:103BC80004F23B5030F09CFB60B10C4A0C490D48A4
:103BD800BDE870402CF050BD1422294604F23B5039
:103BE80030F0A0FB012384F8343504490648BDE8C9
:103BF80070402CF063BD00BF302300206B280020EC
:103C0800B97903087C790308C479030870B50646B6
:103C18002FF090FC124C054690B11122002120464D
:103C280030F042FB2A460F49304630F069FB38B184
:103C3800102D2A46314628BF1022204630F072FB4C
:103C48002378074A002B08BF0121064B1CBF00211F
:103C580013460120044ABDE870402CF0A7BD00BF00
:103C6800607F00207EA50308CA7903082DE9F04F7C
:103C78008BB083462CF0C1FA044638B100224B4978
:103C88000120FEF7B3FC0BB0BDE8F08F58461BF0DF
:103C980009F80928054600F38380860037180BF1D8
:103CA8000100DFF814A18DF81F402CF0AEFA0AF5D8
:103CB800AA68544608EB07098346C24658B11AF069
:103CC800F1FF0D2807D8E31983F850059DF81F3038
:103CD80001338DF81F3058462CF097FA834660B1AF
:103CE8001AF0E0FF052808D87319234483F8510512
:103CF8009DF81F3001338DF81F3058462CF085FA97
:103D0800834660B11AF0CEFF082808D873192344F7
:103D180083F852059DF81F3001338DF81F30F91CC8
:103D28000DF11F02514458462CF07CFA9DF81F20D3
:103D3800052A2DD1002308A9484608938DF8243078
:103D480030F08AFA7319234493F8511518B1F9B170
:103D580093F85235E3B12E4434444FF4617094F82B
:103D68005425192313FB0202049294F8532513FBDC
:103D78000203039394F852350D4ACDE9011300214B
:103D880094F85035009308462B462CF00FFD7AE73F
:103D9800002348F8073089F804302CF08BFC72E7D0
:103DA8000922214603482CF07DFC6CE7802800207E
:103DB80033730308D2790308302300202DE9F0413A
:103DC8008AB007462CF019FA054638B10022624934
:103DD8000120FEF74BFE0AB0BDE8F08138461AF024
:103DE80061FF0E28044600F3B1800A264643781C7A
:103DF8008DF827502CF009FA584D074658B11AF09B
:103E080051FF032807D8AB1983F889059DF8273097
:103E180001338DF8273038462CF0F7F9804668B121
:103E28001AF040FF0D2809D80A2303FB045383F82E
:103E380084059DF8273001338DF82730464F711CD3
:103E48000DF12702394440462CF0ECF92CF0DDF94D
:103E5800804668B11AF026FF202809D80A2303FBF8
:103E6800045383F887059DF8273001338DF82730F0
:103E780040462CF0CAF9804668B11AF013FF0D28A5
:103E880009D80A2303FB045383F888059DF82730D3
:103E980001338DF827309DF82730062B07D0BA1943
:103EA8000023BB51536013812CF004FC93E70A26CE
:103EB80006FB04560023A6F88A35A6F88C3540463A
:103EC8002CF0A3F9074640B11AF0ECFE9DF8273014
:103ED800A6F88A0501338DF8273038462CF095F975
:103EE80058B11AF0DFFE0A2303FB0453A3F88C052C
:103EF8009DF8273001338DF827300A2303FB04533C
:103F08004FF46170B3F88C250792B3F88A250692AE
:103F180093F88825059293F88725049293F88615D7
:103F2800192212FB0101039193F8851512FB010276
:103F3800029293F88425019293F889350093002121
:103F48002346074A08462CF031FC44E70E2229464E
:103F580004482CF0A7FB3EE7B428002030230020BB
:103F6800CA730308D27903087FB505462CF045F9D2
:103F7800044630B1002218490120FEF789FC04B03C
:103F880070BD28466A461549144E30F0D0F801AD88
:103F980078B1032C02D12CF08DFBF0E71AF082FEE9
:103FA8006A4645F824003146002030F0C0F8013454
:103FB800EEE7032CEFD1DDE90145039E29463246A1
:103FC800E0B229F0B3FB0028E5D033462A46214663
:103FD80003482CF073FBD2E750700020B0A7030809
:103FE800937303087FB506462CF007F9054638B1E8
:103FF8001B490022012004B0BDE87040FEF7C4BC94
:1040080030461AF04FFE0F28044620DC30462CF0CC
:10401800FCF80146204629F0B1FB98B1114B04F198
:10402800200203EB8201C87802908978019133F865
:10403800223000930C4A2346294628462CF0B6FB2A
:1040480004B070BD04B0BDE870402CF033BB074825
:104058000F22294604B0BDE870402CF023BB00BFF6
:10406800D070002050700020A7730308D27903088D
:104078002DE9F04FDFF868808FB007468A4616466C
:1040880000240DF124095AF824300293494602A865
:1040980021F034FF16B356F82430029D0393EB1A2F
:1040A8005D420DF1100B5D41594603A821F026FF32
:1040B800CDF800B023464246294638462CF05EFB30
:1040C8002346CDF8009042462946384601342CF064
:1040D8006DFB202CD7D10FB0BDE8F08F3546EFE748
:1040E800D879030870B588B006462CF086F80546DE
:1040F80030B1002215490120FFF7BAFF08B070BDA2
:1041080030461AF0CFFD1F28044619DC30462CF043
:104118007CF80146204629F04FFC70B10B4803AEED
:10412800314600EB840021F0E9FE00962346084A58
:10413800294628462CF03AFBE0E72CF0BBFADDE7ED
:104148001F22294603482CF0ADFAD7E7507000200B
:10415800D8790308D27903082DE9F04F2DED088BA3
:10416800DFF80C9193B0804692460D46144600261F
:1041780095ED008AB5EE408AF1EE10FA70D0D5EDD3
:10418800019A95ED029AD5ED038ABAF1000F3ED057
:1041980094ED000A94ED01BAD4ED02AA94ED03AAB5
:1041A800B4EE408AF1EE10FA5FD1F4EE4B9AF1EEDC
:1041B80010FA5AD1B4EE6A9AF1EE10FA55D1F4EE2B
:1041C8004A8AF1EE10FA0CBF012700270FA81AF04F
:1041D80097FEB0EE4B0A83460CA81AF091FEB0EE9B
:1041E8006A0A059009A81AF08BFEB0EE4A0A0490F4
:1041F80006A81AF085FE059B049A03900292CDE961
:1042080000B34A463346394640462CF0B7FAB0EE7A
:10421800480A0FA81AF074FEB0EE690A07460CA8FF
:104228001AF06EFEB0EE490A834609A81AF068FE35
:10423800B0EE680A049006A81AF062FE049B039088
:10424800CDE901B3009733464A460021404601367E
:104258002CF0ACFA082E05F1100504F1100487D1F2
:1042680013B0BDEC088BBDE8F08F0027AEE700BFA8
:10427800E27903087F2810B5044607D964F07F0067
:10428800C0B2E4092AF054FA7F2CF7D8E0B2BDE8AE
:1042980010402AF04DBA00BFF0B52B4C2B4DD4F886
:1042A8002876D4F82C662A492A48D4F81C3694F87B
:1042B80024262D78097890F82000B74285B027DBAE
:1042C80084F83456C4F8303684F8350684F836163F
:1042D80084F8372601AD53202AF02AFAD4F830069C
:1042E800FFF7C8FF94F83406FFF7C4FF94F83516B3
:1042F80094F8362694F8373603932846CDE9011208
:104308002AF01EFA0023C4F82836012005B0F0BDB3
:10431800D4F830668DF80850B3428DF80B2001931D
:104328008DF809008DF80A1001AD04F5C66204D0B5
:1043380095E8030082E80300CDE76968536899426D
:10434800F6D10020E2E700BF302300206C6A00208D
:10435800CD710020186800201E4A1F4B11680022EA
:104368001F29C3F83826A3F83C26A3F83E26A3F84D
:104378004026C3F8282623D03F291CD04FF4FA4200
:10438800B2FBF1F1A3F842161448B3F942260188AA
:1043980029B1914201DD1F2A17DC92FBF1F1A3F844
:1043A800441681780E48003118BF01211202C3F863
:1043B8002C26017070474FF40072A3F84226E3E7F9
:1043C8004FF48062A3F84226DEE70121A3F84416E1
:1043D800E7E700BF54600020302300207E6A0020F9
:1043E800827B0020194BB3F83C26D3F82806D3F873
:1043F800381610B40132B3F9424692B20130013195
:10440800A242C3F82806C3F83816A3F83C260FDAE8
:10441800B3F84026B3F944165DF8044B013292B262
:104428008A42A3F84026A4BF0022A3F8402670477A
:10443800B3F83E265DF8044B00210132A3F83E266E
:10444800A3F83C16A3F84016704700BF302300209D
:10445800F0B5A44C04F5C9638FB093ED000A2FF0B2
:10446800AFFE04F24C6393ED000A05462FF0A8FE58
:10447800064640202AF0FCF8002858D19A4AD4F879
:10448800503657784F2B00F2F384DFE813F02104FD
:1044980013040904F503EC03E203D803CE0348042C
:1044A8003E0434042A04BF045204CA04C403BD03EE
:1044B800B303A9039F039203840376036803570396
:1044C80046033503270319030B03FD02A9029D02C6
:1044D800920286027B027002650259024D02410275
:1044E80035022A021F0213020502FA01EF01E40154
:1044F800D901CF01C501BB01B101A7019D019301FC
:1045080088017D016701200116010C010201F800F4
:10451800EE00E400DA00D000C600BC00B200A9003A
:104528009F00940089007C006F0062005300002007
:104538000FB0F0BD6D4B6E49D3F898206D48FDF76C
:10454800E9FBD4F8503601330020C4F850360FB0D8
:10455800F0BD664A6849B2F896306848B2F89420C7
:10456800FDF7D8FBD4F850360133EDE7644A6249C9
:1045780092F82A30634892F82920FDF7CBFBD4F84B
:1045880050360133E0E75E4A5B4992F827305E48CF
:1045980092F82620FDF7BEFBD4F850360133D3E756
:1045A800574B534993F828205848FDF7B3FBD4F8E4
:1045B80050360133C8E7524B4D4993F825205448EB
:1045C800FDF7A8FBD4F850360133BDE7514B4849F5
:1045D8001A685148FDF79EFBD4F850360133B3E70B
:1045E800927843494D48FDF795FBD4F8503601338E
:1045F800AAE74B4B3E49DA894A48FDF78BFBD4F8CA
:1046080050360133A0E7464B39491A884648FDF72A
:1046180081FBD4F85036013396E7414B34499A78F8
:104628004248FDF777FBD4F8503601338CE73C4B12
:104638002F491A793E48FDF76DFBD4F850360133FF
:1046480082E72F4B2A491A7A3A48FDF763FBD4F8D8
:104658005036013378E72A4B25491A7F3648FDF74B
:1046680059FBD4F8503601336EE7254B20499A7E22
:104678003248FDF74FFBD4F85036013364E7204B3E
:104688001B491A7E2E48FDF745FBD4F850360133F6
:104698005AE794F8782616492A48FDF73BFBD4F8E0
:1046A8005036013350E794F86B2611492648FDF738
:1046B80031FBD4F85036013346E7244B0C495A797C
:1046C8002348FDF727FBD4F8503601333CE7214B4C
:1046D8000749DA782048FDF71DFBD4F85036013336
:1046E80032E700BF30230020B46600205860002065
:1046F800EBB20308FC800308A4800308E0800308E9
:10470800CC5F0020C4800308AC8003088C800308B9
:10471800788003086C7E00206C80030860800308A2
:10472800185300204C8003083C80030828800308A5
:104738001480030800800308E47F0308C87F030887
:10474800B47F03089C7F03088C7F0308D86F002080
:104758007C7F0308606300206C7F0308A64B9FEDF5
:10476800A77A1B88A649A74807EE903AF8EEE77A99
:1047780067EE877AFDEEE77A17EE902AFDF7CAFA18
:10478800D4F850360133DFE69F4AA049538AA0483F
:10479800D289FDF7BFFAD4F850360133D4E69A4AE5
:1047A8009A49138A9B489289FDF7B4FAD4F850368F
:1047B8000133C9E6944B92495A899748FDF7AAFAFA
:1047C800D4F850360133BFE68F4B8D491A7E934893
:1047D800FDF7A0FAD4F850360133B5E68A4B88497C
:1047E8001A898F48FDF796FAD4F850360133ABE6AC
:1047F800854B8349DA7D8B48FDF78CFAD4F850361F
:104808000133A1E6804B7E49DA788748FDF782FAC2
:10481800D4F85036013397E694F8612678498348EE
:10482800FDF778FAD4F8503601338DE694F860260F
:1048380073497F48FDF76EFAD4F85036013383E6A2
:104848007C4B6F491B687C485A8DFDF763FAD4F896
:104858005036013378E6774B69491B6877481A8DDB
:10486800FDF758FAD4F8503601336DE6714B6449B8
:104878001B6873481A8FFDF74DFAD4F85036013388
:1048880062E66C4B5E491B686E48DA8EFDF742FAA9
:10489800D4F85036013357E6664B6B491D686B48B0
:1048A8006B8AAA892D8B0095FDF734FAD4F8503617
:1048B800013349E65F4B52491B68654893F8472026
:1048C800FDF728FAD4F8503601333DE6594B4C49E8
:1048D8001B6860489A8EFDF71DFAD4F850360133EC
:1048E80032E6544B46491B685B485A8EFDF712FA6C
:1048F800D4F85036013327E64E4B41491B685748D8
:1049080093F83020FDF706FAD4F8503601331BE649
:10491800484B3B491B68524893F82C20FDF7FAF99D
:10492800D4F8503601330FE6424B35491B684D48E1
:1049380093F84620FDF7EEF9D4F85036013303E634
:104948003C4B2F491B68484893F82720FDF7E2F9AC
:10495800D4F850360133F7E5364B29491B684348EC
:10496800DA88FDF7D7F9D4F850360133ECE5314B46
:1049780023491B683E489A88FDF7CCF9D4F850368D
:104988000133E1E52B4B1E491B683A481A88FDF7AD
:10499800C1F9D4F850360133D6E5264B18491B68BF
:1049A8003548B3F84C20FDF7B5F9D4F85036013343
:1049B800CAE5204B12491B6830485A88FDF7AAF906
:1049C800D4F850360133BFE51A4B0D491B682C4803
:1049D80093F82620FDF79EF9D4F850360133B3E555
:1049E800144B07491B68274893F82020FDF792F9D4
:1049F800D4F850360133A7E5606300200000C842B0
:104A0800EBB20308607F0308504B0020687C030862
:104A18004C7F03083C7F0308287F0308147F0308A2
:104A2800047F0308F07E0308DC7E0308CC7E0308BD
:104A3800D07E0308A86C0020B87E0308A87E03086F
:104A48009C7E03088C7E0308247D0308787E030877
:104A5800607E03084C7E0308347E0308207E03082A
:104A68000C7E0308FC7D0308EC7D0308D87D030851
:104A7800C87D0308B87D0308A47D0308907D03085A
:104A88007C7D0308747D0308AD4BAE491D68AE48B4
:104A9800EB7EAA7E2D7F0095FDF73CF9D4F85036C1
:104AA800013351E5A64BA7491D68A8486B7D2A7DAF
:104AB800AD7D0095FDF72EF9D4F85036013343E566
:104AC8009F4BA0491D68A248EB7BAA7B2D7C0095D3
:104AD800FDF720F9D4F85036013335E5984B99495C
:104AE8001D689C486B7A2A7AAD7A0095FDF712F911
:104AF800D4F85036013327E5974B9249974807EB8E
:104B0800C70703EB4707FD7ABB7A7A7A0095FDF76A
:104B180001F9D4F85036013316E58F4B894990488E
:104B280007EBC70703EB47073D7AFB79BA7900958E
:104B3800FDF7F0F8D4F85036013305E5864B814986
:104B4800884807EBC70703EB47077D793B79FA7875
:104B58000095FDF7DFF8D4F850360133F4E47E4BC6
:104B68008149824807EBC70703EB4707FA89FDF736
:104B7800D1F8D4F850360133E6E4774B7A497C48CB
:104B880007EBC70703EB47073A7BFDF7C3F8D4F8F1
:104B980050360133D8E4704B7349764807EBC707A2
:104BA80003EB47077A78FDF7B5F8D4F850360133A8
:104BB800CAE4694B6C49704807EBC70713F817201C
:104BC800FDF7A8F8D4F850360133BDE494F88E23E5
:104BD80065496A48FDF79EF8D4F850360133B3E4C6
:104BE800674B61499A786748FDF794F8D4F85036CE
:104BF8000133A9E4644B5C491A686448FDF78AF8F4
:104C0800D4F8503601339FE4614B9B79012B00F0B7
:104C18002181112398E4B4F85C265E495E48FDF7CB
:104C280079F8D4F8503601338EE45C4B4E491A8833
:104C38005B48FDF76FF8D4F85036013384E4B4F9D3
:104C4800442649495748FDF765F8D4F850360133EA
:104C58007AE4B4F9422644495348FDF75BF8D4F89E
:104C68005036013370E4514A51495248FDF752F821
:104C7800D4F85036013367E403A819F045FF4E4BCA
:104C880003A9B3F9002006A800231AF043FB06AADB
:104C980047494A48FDF73EF8D4F85036013353E403
:104CA800474B484A48494948FDF734F8D4F8503644
:104CB800013349E4464A474B47494848CDE9003261
:104CC800474B484AFDF726F8D4F8503601333BE401
:104CD800454A37494548FDF71DF8D4F850360133A1
:104CE80032E4B3B2AAB242494248FDF713F8D4F805
:104CF8005036013328E44FF07E523F493F48FDF7D4
:104D080009F8D4F8503601331EE43D4B16495A8A47
:104D18003C48FCF7FFFFD4F85036013314E4384B15
:104D280011491A8A3848FCF7F5FFD4F85036013390
:104D38000AE4D4F85836DB0400F18180102303E438
:104D4800A86C0020247D0308687D0308607D0308A3
:104D5800547D03084C7D0308FE7A0020447D030837
:104D68003C7D0308307D0308EBB20308147D03087B
:104D7800087D0308FC7C0308F47C0308E07C030836
:104D8800504B0020D07C0308704B0020C47C0308E3
:104D98006E6A00205CA50308AC7C03087E6A0020CC
:104DA800347C0308287C03081C7C0308607F0020EF
:104DB8002D7A0308107C0308E87E0020FC7B03089A
:104DC8003E74030847740308F0790308EC7B030872
:104DD800EE73030836740308C87B0308D87B0308FE
:104DE80053740308FB730308AC7B0308B87B030800
:104DF800687C0308707C0308547C03085C7C030807
:104E080018530020487C03083C7C03081A4B1B49B4
:104E18009A8A1B48FCF77EFFD4F850360133FFF717
:104E280093BB18481849837842780078009017484F
:104E3800FCF770FFD4F850360133FFF785BB144BED
:104E48000E491A781348FCF765FFD4F85036013339
:104E5800FFF77ABB104A1149B2F900301048B2F98D
:104E68000220FCF757FFD4F850360133FFF76CBB2C
:104E78000120FFF75DBB00BF6C6C00205CA5030838
:104E88007C7C03086E6A0020907C03089C7C0308E5
:104E980021790020847C030826790020687C030897
:104EA800B47C03082DE9F04F604D85B0D5F8544621
:104EB8000093904600290CBF04230623621C0F9F11
:104EC80001936ED00E9BA34247DDDFF874A157B162
:104ED800109BDA1B04FB02F20123B95CD5F85826B3
:104EE8008B40134231D0009BD5F850B6A3EB080392
:104EF80004FB03F408EB0406BBF1000F3AD158F8A1
:104F080004002EF017FB00F10509484629F0B0FB14
:104F1800002836D1DAF8000095F87A16A0EB0900D7
:104F2800CAF80000002936D1012385F87A36BBF18A
:104F3800000F2AD158F8040029F0E6FB96F904106E
:104F48004B1C02D03A48FCF7D3FED5F854460E9BCA
:104F580001349C42C5F85446B9DB0E9BA3424ED09F
:104F6800D5F85006019B834294BF0020012005B06C
:104F7800BDE8F08F4FF00309484629F079FB002877
:104F8800C8D0012005B0BDE8F08F5E4429483179CA
:104F9800FCF7AEFED9E72C2029F0CAFBD5F850B6AD
:104FA800C5E7D5F850A69A4503D3002005B0BDE85B
:104FB800F08F214B039103EB8A030646D3F8502464
:104FC800029210462EF0B6FA0B3029F051FBDDE9BB
:104FD800022104460028D4D1BAF1030F98BF314604
:104FE8001648FCF785FE1649D5F854260B6885F84F
:104FF8007A461B1A541C0B60C5F8544662E7012018
:1050080029F036FB0028ABD10D4A13680A20013B72
:10501800136029F08DFBD5F850064FF0FF330130AF
:10502800C5F85006C5F854369CE700BF3023002069
:1050380024810308EBB203088C4303081481030896
:10504800487F00202DE9F04F8E4CA378032B18BF22
:10505800032387B04FF0800018BFA37010F042F808
:105068000746002800F0A680802110F031F87E79EC
:10507800854B97F90270854D03EB86030222D3F81E
:1050880068340093B3F5613F0CBF1146002100233B
:10509800CDE9012185F87B061A46384680210FF0B4
:1050A800C3FE0C3E7A4B032E186040F28980794B80
:1050B800794A1B6803EB4303A2FB03235B0900F057
:1050C800DF80402BA8BF4023DBB2744A137000284E
:1050D80070D0734A95F86690724BE678116893F829
:1050E80006C0714A93F80580DFF8CCA192F800E079
:1050F80095F804286D4B2788BAF80240DFF8BCB150
:105108006B48A5F85C4619F1000918BF4FF0010972
:10511800003618BF012611F0020F08BF0026002133
:105128001CF0FD0F14BF4FF0010A8A46B8EB0108C6
:10513800A2F1190C18BF4FF00108BEEB010E03F1E4
:10514800140418BF4FF0010EBCFA8CFC012AC5F8F4
:105158007C1603F190024FEA5C1CC5F8584308BF5F
:105168004FF0010C03F5867417F1FF37C3E90111FD
:10517800C3E90311DBF80030C5F85C23C5F86043C8
:1051880090F800B0049318BF01270A460C46012086
:105198000596D3B2591E152918D8DFE801F0242442
:1051A8002424242424242E1A1A43201A3F3232326B
:1051B8004B15471A3F4B00221A7007B0BDE8F08F15
:1051C800364B40221A7082E7059931B100FA02F194
:1051D8000C430133DBB2162B30D80132D9E75146E4
:1051E8000029F3D1F9E79B4534BF002101210029AB
:1051F800EFD000FA02F10C43EBE761460029E5D154
:10520800EBE7049E02EB420106EB410111F8561C44
:10521800003118BF01210029EBD1DAE749460029FE
:10522800D4D1DAE741460029D0D1D6E77146002922
:10523800CCD1D2E739460029C8D1CEE71620C5F827
:1052480058462DF04DFC1B4CD5F80C18D5F81C26EB
:1052580085F80708002302202070C5F83836A5F81D
:105268003C36A5F83E36A5F84036C5F8283685F808
:105278001438C5F80818C5F8102807B0BDE8F08F2D
:10528800012322E77E6A00208C4303083023002094
:105298004C7F002054600020D34D6210507F0020C6
:1052A800C06300206E6A002095610020AC290020B0
:1052B800A8640020827B00200C690020A86C0020D4
:1052C80008B5084B9B78032B06D0FFF7BBFE064BAF
:1052D800012283F8152808BD1FF09CF90028F4D096
:1052E80008BD00BF7E6A00203023002000B5ADF263
:1052F8008C6D68464FF4D16206492EF0E3FE029B9E
:105308001BB168460DF1560198470DF28C6D5DF89A
:1053180004FB00BF804B00202DE9F04F2DED068BDC
:10532800B44B9B7D012B87B000F02A85022BB24B32
:1053380001931A460CBF0723002382F81638AF4B97
:105348001B78132B00F235840122AD499A400A429A
:1053580008BF0023A749019C4A79DFF8BCA284F85A
:105368001738131C18BF0123C9798AF861303D2208
:10537800002323208AF85E3084F818388AF86520DC
:1053880084F8191816F048FF9E4BDAF81800CAF886
:10539800143002238AF81030002800F0E7841C2219
:1053A80000238271C3710D2117F082F9DAF8180011
:1053B80017F0FEFA4FF48071DAF814001AF024FCA2
:1053C800DAF8183013B11A689B8813856B21DAF85C
:1053D800140017F009FD8021DAF8140017F004FD15
:1053E800DAF8183013B11A689B8893610623864C43
:1053F800DFF82882DFF82892844D854E03939623A0
:10540800DFF820C200934FF0100ED9F80430C3F330
:105418000803002B40F0C980EFF31183002B40F004
:10542800C4802068AA6823689842FAD133689A42EF
:10543800F7D8D8F800704FF47A7101FB07F39B1A7C
:10544800B3FBF7F301FB00304FF47A77D9F8043057
:10545800C3F30803002B40F08880EFF31183002B7F
:1054680040F083802368A96822689342FAD13268A1
:105478009142F7D8D8F8002007FB02FBABEB0101FB
:10548800B1FBF2F107FB03131B1AB3F57A7FDDD3E7
:10549800009B013B0093B8D1DAF8183013B11A68B1
:1054A8009B881385DAF8140040F2E93302E0002BF8
:1054B80000F09D800289013B12F0020F9BB2F6D0EA
:1054C800F523037340F2E93302E0002B00F08F80EC
:1054D8000289013B12F0010F9BB2F6D0037BDAF888
:1054E8001400838940F2E93301E0002B7CD0028963
:1054F800013B12F0020F9BB2F7D0FF23037340F277
:10550800E93301E0002B6FD00289013B12F0010F53
:105518009BB2F7D0037BDBB20293DAF8180010B124
:10552800036882889A61029B682B7DD0039B013BAC
:1055380013F0FF0303937FF462AF9AF85C30032BF8
:1055480000F0938000208AF86700324A92F89A3572
:1055580023B19AF86630003318BF012382F89A35D0
:1055680007B0BDEC068BBDE8F08FEFF311818EF329
:105578001288D5F808B02B68DB0304D50123CCF8D2
:105588000030D5F808B02368DCF80020C9B281F3F0
:105598001188D8F80010134407FB01F2A2EB0B02A4
:1055A800B2FBF1F207FB03236EE7EFF311828EF3F0
:1055B8001288AF682B68D90303D50123CCF80030D3
:1055C800AF682368DCF80000D2B282F31188D8F8FB
:1055D80000104FF47A72184402FB01F3DB1BB3FB93
:1055E800F1F302FB00302FE717F0B2FB95E717F055
:1055F800AFFB74E7504B002030230020956100205A
:1056080048800A0000300140F83D002010E000E02A
:10561800003E002000000020804B0020FC3D0020C0
:1056280000ED00E0F43D002017F0BCF98C21DAF819
:10563800140017F0D9FB01230DF117020021DAF845
:10564800140017F0A1FBDAF8180017F0B1F99DF86B
:105658001730142BFFF471AF182B03D9543B062BCA
:105668003FF66BAF03238AF85C30D14AD14C1368FC
:10567800D149CAF81C1043F001031360E178CF4BFD
:10568800CAF804300223CE488AF85E300622002386
:105698000129CAF800008AF86720A37140F28C82B9
:1056A8009FEDC87A8AF85F30012307EE903AF8EE4A
:1056B800E77AC04DC44CC5488AF8621067EE877A0D
:1056C800013BFCEEE77A8AF864302B798AF863307C
:1056D800C4ED007A17F000FC2B780BB18AF85E3025
:1056E80001238AF866301DF03BF926689FEDB80A59
:1056F800B84DB94C07EE906AF8EE677A80EE270A43
:105708002EF05EFDA5FB00356D0840F235539D4235
:10571800A8BF1D46AFB2019A7B08A2F8283807EE49
:10572800907A9FEDAE7ADFEDAE6AA2F82078F8EEB7
:10573800677A4FEA970887EE270AA2F8228867EE69
:10574800A67AB7EE087A17EE903A30EE470A44F890
:10575800083B2EF035FD019A9FEDA25ADFEDA25AC3
:10576800DFEDA24A9FEDA22ADFEDA22A9FEDB13A12
:105778009FEDA11ADFEDA11ADFEDAC6A0128B8BFD1
:10578800012082F82A08002306E00133F6EE007AA9
:10579800202BE4EC017A55D007EE903AB8EEE77A80
:1057A80027EE057A77EE257ABDEEE76A16EE102A1F
:1057B8002032402AE9D8B4EEE57AF1EE10FA40F347
:1057C8000B829FED996A01E0F0EE477AF4EEC67A13
:1057D800F1EE10FA37EEE67AF6DCB4EEE47AF1EEA2
:1057E80010FA40F101829FED926A01E0B0EE677A0B
:1057F800B4EEC67AF1EE10FA77EE267AF6D4F4EE25
:10580800E57AF1EE10FA40F3DF8171EEE77A27EEE0
:10581800A76AF0EE623AE6EE023A0133202BF0EE88
:10582800430AE3EE860AB7EE007A26EE674A77EE79
:10583800677AB6EE007AE4EE207A67EE877AE4ECCF
:10584800017AA9D15B496E4A887FB2FBF5F107EE70
:10585800100AB2FBF6F080B2B0FBF7F0C0B207EE68
:10586800900A92FBF5F2F8EEE77AB7EE005A85EE69
:10587800270A06EB4606B400A1420E4638BF264664
:105888004C498AF8F502AAF80C355E4C04EE906A89
:10589800F8EE644A06EE102AFCEEE44ACA7F9FED51
:1058A8005A3ADFED5A0ADFED5A6ADFED4F5A8AEDB0
:1058B800BE0AB8EEC66AF8EE644AB8EEC77A64EE75
:1058C800A04A07EE902A26EE036A03EE108AC6EE77
:1058D800872A504ACAF8042502F12803A8324E49FB
:1058E800CAF80035CAF810251023AAF8FC34142386
:1058F800AAF80835A1F54376A1F55E739FED477ABE
:10590800DFED476A9FED474A9FED3C2ADFED373AC6
:105918009FED371ADFED371AB8EE433AF8EEE77A1B
:1059280034EEA50A26EE036A77EE677ABDEEC07AF2
:1059380076EE250A17EE107ABDEEE47A67EEA67ABF
:1059480017EE105ABDEEE07A203717EE100ABDEEBA
:10595800C67A203517EE102A20302032C4ED007A9E
:10596800C824402A21F8024B00F29281B4EEC26AA0
:10597800F1EE10FA40F32B82F0EE467A9FED2B3AC7
:10598800DFED296A01E0F0EE477AF4EEE67AF1EE0F
:1059980010FA37EEC37AF6DCB4EEE37AF1EE10FAD9
:1059A80040F112829FED213ADFED216A48E000BF05
:1059B800C0630020504B002090C1793D3DDC0108B8
:1059C800E1CE010800007A44704B0020804B002093
:1059D80000247449ABAAAAAA542B0020000034451D
:1059E8000000003D3C8C4F3EDB0FC93FDB0F49C038
:1059F80092E741B99730083CDB0FC9BFDB0F49403C
:105A080040420F004C2B002027D4D236E5A6C539DA
:105A18000000484234480308005200200000C842F1
:105A28000AD7233C00000000E4CB1641DB0FC94035
:105A3800E4CB16C115A82ABEF304353FB0EE677A49
:105A4800B4EEE67AF1EE10FA77EE037AF6D4F4EED5
:105A5800E57AF1EE10FA40F3758172EE677A67EE37
:105A6800A76AB0EE618AA6EE818A40281FED0F7AF8
:105A7800A8EE267A27EEA63AE3EE077A67EEA26A40
:105A880076EE858A35EE663AC5EE287A66EEA76A1E
:105A980023EE273AB1EE669A40F20581B0EE447AD9
:105AA800402DC3ED006A83ED014A83ED029A83ED30
:105AB800037A83ED043A83ED064A83ED054A83EDC4
:105AC800084A83ED074A00F29280F4EEC24AF1EEEA
