:020000040800F2
:100000000020001039490308E51E020839320108B2
:10001000E31E0208E11E0208DF1E020800000000C5
:10002000000000000000000000000000DD1E0208CB
:10003000DB1E020800000000D91E0208B1250008DE
:10004000A1490308A1490308A1490308A1490308DC
:10005000A1490308A1490308C92E00080930000876
:10006000C92F0008892F0008492F0008316D0008AA
:10007000216D0008116D0008016D0008F16C000889
:10008000DD6C0008C96C0008A1490308A1490308F8
:1000900069520208A1490308A1490308092F000871
:1000A000A1490308A1490308A1490308A14903087C
:1000B000551E0008991D0008DD1C0008A149030811
:1000C000A1490308A1490308A1490308A14903085C
:1000D000A14903086D260008A1490308F12500087D
:1000E000892E0008A1490308C91E0208A149030876
:1000F0004D1B0008A1490308151C0008A14903086D
:10010000000000000000000000000000A1490308FA
:10011000A1490308A1490308C57B0108B17B010877
:10012000B56C0008A16C00088D6C0008796C0008A3
:10013000656C0008A14903080000000000000000F1
:10014000A1490308A1490308A149030800000000D0
:10015000000000000000000000000000000000009F
:100160000000000000000000A1490308A1490308A5
:10017000A14903080000000000000000000000008A
:0801800000000000A149030882
:10018800436A8269D154436A0169C26B01338B4265
:1001980028BF002343623AB370B4EFF311835022AF
:1001A80082F31288C66B3268D20704D5DBB283F3B8
:1001B800118870BC7047716869B9D0E909429442E6
:1001C80018D085691544F56018D9A21A726084623E
:1001D800002280F85820326842F00102DBB2326017
:1001E80083F3118870BC7047426D136843F0800335
:1001F80013607047012280F85820D7E70469A21AD3
:1002080072608162E4E700BF034610B4846BD9686A
:10021800406954B19A6C8C1A013A005D5DF8044B40
:1002280008BF0A46C0B29A6470471A6A805C0132F5
:100238008A4228BF2246C0B21A625DF8044B704752
:10024800C36B13B190F858007047D0E90903181A26
:10025800B0FA80F040097047D0E909120369914269
:1002680038BFC9188A1AC16B013B19B149680A44D9
:100278009A4201D2981A704700207047836B43B1A5
:10028800826C5B689A4291BF981AC0689B1AC01822
:100298007047D0E907239A422FBFD01AC068801848
:1002A800C01A70471A232B22837225230370027306
:1002B80000232A22037582708375704703682DE92D
:1002C800F0415D6A1DB12B46BDE8F0411847002A90
:1002D800174611DD04460E460F4400E023689B686C
:1002E800204698470028F9D0236816F8011B1B6898
:1002F80020469847BE42F1D1BDE8F08103681B69EA
:10030800184700BF00232322027043708370C37014
:10031800704700BF90ED057A90ED004AD0ED066A6F
:10032800D0ED014AD0ED047A90ED035AD0ED025A8F
:10033800A4EE007AB0EE406AB0EE470AB0EE667AF4
:10034800A4EE867A67EEC07AA5EE407AE5EE867A64
:1003580080ED057AC0ED067A704700BFD0ED057ACA
:1003680090ED013AD0ED003AD0ED064A90ED024A00
:1003780090ED077A90ED035A90ED086AD0ED045A93
:10038800C0ED067AF0EE406A27EE830AC0ED056AF2
:10039800A3EEA60A80ED087AA4EE240AA5EE470A81
:1003A800A5EEC60A80ED070A704700BFD0ED007AB7
:1003B80090ED017A30EE670AE7EE007AB0EE670A50
:1003C800C0ED007A704700BF704700BF2DE9F047C5
:1003D80014461D4606464FF47A72002320462946E5
:1003E80034F0DAF84D4BDFF848814D4A4D4F03445D
:1003F80088FB03101844D91782FB032CC1EB60104B
:1004080088FB002887FB03279C44474AC1EBEC2C58
:10041800C0EB001E82FB0C29A3EB8E0E1F44434A3F
:1004280086F806E0C1EB27474FEAEC7E08EB000AA6
:10043800CEEBA90E82FB07824FEAE0780EEB4E0E58
:10044800C8EB6A18ACEBCE0CC8EB0818DFF8E4E090
:1004580086F804C0A0EB880070718EFB0303F817C0
:10046800C0EBE21240F2B55000FB1272C1EBE3534D
:10047800B2F5896F4FEA83073CDA40F2DA239A42F1
:1004880042DCB2F5B77FB4BF4FF0000E4FF0010E5B
:100498004FEA4E09DFF8A08009EB0E0308EBC3030F
:1004A8001FFA8EFCD88A09EB0E0108EBC101163140
:1004B8000B2301E031F8020D904218DD013BF9D120
:1004C800CE44012338F83E00B37007F5FA670132CD
:1004D800121ABC44F270A6F800C0204629464FF410
:1004E8007A72002334F058F83281BDE8F08701337E
:1004F800DBB2E9E74FF0030CE64640F29650DFF82E
:1005080038804FF00609CEE74FF0020CDFF828805C
:10051800E64640F229404FF00409C4E780BC92C780
:10052800C5B3A29107452EC2ABAAAA2A73B06D160D
:1005380089888888792D0311F04E03080028F0B4C3
:1005480003DA2D230B7040420131092804464FF08D
:10055800010307DD03EB83035B00B0FBF3F2092A19
:10056800F8D883B10F48A0FB0326B4FBF3F2092A9D
:1005780002F1570C02F1300709DD03FB1244F308BE
:1005880001F801CBEFD100230B70F0BC704703FBDF
:100598001244F30801F8017BE5D100230B70F0BC8D
:1005A800704700BFCDCCCCCC884270B44FF001046A
:1005B80042D301FB04F4B0FBF4F58D42F9D2ECB15F
:1005C80042BB092D04FB150005F1570605F1300261
:1005D8000EDDB4FBF1F403F8016B7CB1B0FBF4F56C
:1005E800092D04FB150005F1570605F13002F0DC72
:1005F800B4FBF1F403F8012B002CEFD100221A70A0
:1006080070BC704703F8016BB4FBF1F4002CF5D013
:10061800B0FBF4F5092D04FB150005F1370605F1CB
:100628003002EFDCB4FBF1F403F8012B002CEFD11E
:1006380000221A7070BC70470546002AEAD1C0E74C
:1006480003685A1C02601970704700BF2DE9F04713
:10065800089C2578002B804689460CBF4FF0200A5D
:100668004FF0300A661C25B3002A26DD334601E028
:10067800024698B113F8011B501E0029F8D1971EA5
:1006880060B13D46013D51464046C8476B1C002BB2
:10069800F8DC257827EAE770013045B1041B2946C4
:1006A8004046C847301916F8015B002DF7D1BDE860
:1006B800F087002A03DC2846F9E70020EEE7571EFA
:1006C800DFE700BFF0B400250E4E00F1FF3C2F46D7
:1006D800142165B103788B420BD003460CEB05045B
:1006E80003E013F8012F8A4203D0A342F9D1C15580
:1006F800013701350B2D02D016F8011FE9E7F0BCD0
:10070800704700BF504F030830B41523162517242F
:100718002D212E2203702F2345708470C170027121
:10072800437130BC704700BF09212C22022301709D
:1007380042728372704700BF012321224270037006
:100748008370704706224FF47A73027043607047D3
:1007580001207047CB79002B66D1F0B48E7A4F7A9E
:100768004D7B0C7CCB7CDFED316A9FED317A320218
:1007780002F470623A43CF7A84B0360946EA071623
:100788004FEA052C0CF47067ADF8026091F80CC0C4
:100798008E7BADF800202D094CEA070C45EA0615BA
:1007A800260206F47067ADF804C0CE7B91F811C03C
:1007B800ADF8065024093E438D7C0F7DADF80860E6
:1007C80044EA0C111C0204F470641B09254343EA33
:1007D80007136FF001046F46ADF80C50ADF80E30FA
:1007E800ADF80A10C7F10E06E41B0DF1020304ADC3
:1007F80001E033F8022BC2F30A0107EE901AF8EE73
:10080800E77AB0EE476AA7EEA66A120504EB030181
:1008180048BFF118FCEEC67AAB4217EE902A425256
:10082800E7D104B0F0BC7047704700BFABAA2A3FBD
:1008380000804C44F0B4174C2378591C01F03F0158
:10084800E5184B1C21447E2603F03F021B232E7122
:1008580022700B71C61D7D2704E0A518B042DAB2DC
:10086800297113D010F8011BA1F17D05531C012D2E
:1008780003F03F03F1D82244E51881F02001013349
:10088800B042177103F03F022971EBD12270F0BC1E
:10089800704700BF28230020F0B58F7A8D79CC7A75
:1008A800CE790A7CDFED5F3A4B7C4FEA072E0EF4D7
:1008B800706E45EA0E053F0107F4706C04EE105A9D
:1008C8004FEA042E0D7A240104F470670EF4706E5A
:1008D80046EA0C0404EE904A45EA0E0405EE104A76
:1008E8004C7AF8EEE44A3C4305EE904A16020C7B3B
:1008F800120102F4706506F470664A7BB8EEC55AB8
:1009080064EEA34A34432A4306EE104AF8EEE55A49
:1009180025EE235AFCEEE44A06EE902A1D028A7B55
:100928001B0185B003F4706405F47065CB7BB8EEE9
:10093800C66A14EE901A65EEA35ABCEEC55A2A434D
:1009480007EE102AB8EEC44AF8EEE66A26EE236AE5
:10095800FCEEE55AADF8021015EE101A234307EE27
:10096800903AB8EEC77A24EE234A66EEA36ABCEE44
:10097800C66AADF8041015EE901AF8EEE77A27EE7D
:10098800237ABCEEC44AFCEEE66AADF8061016EE11
:10099800101A67EEA37A14EE103ABCEEC77AADF8D7
:1009A800081016EE901A9BB2FCEEE77AADF80A1022
:1009B80017EE101A1A46ADF80C10A2F5487217EE89
:1009C800901A0DF10204B2F5AF6FADF80E10ADF844
:1009D8000030214604AD08D8A9420CD031F8022BCA
:1009E800A2F54872B2F5AF6FF6D90F4B1B78122BF0
:1009F8000CD005B0F0BD821E0E3001E034F8023B89
:100A080022F8023F9042F9D105B0F0BD074A0849E3
:100A1800B2F8443001339BB2A2F844300B8005B0E1
:100A2800F0BD00BFABAA2A3F456F00202823002055
:100A3800506F0020054A92F846303F2B05D8D11850
:100A4800013381F8480082F8463070472823002097
:100A5800014BD3F888301847282300204FF400634F
:100A680083827047012380F85430704770B4D0E90E
:100A78000041057B02690223AB4063600B684FF6B7
:100A8800FE7003400B60EFF31183502181F312884D
:100A9800D66B3168C9071CD4706870B9D2E90941AE
:100AA8008C4213D095690D44F56017D81469611A02
:100AB80071609062002182F85810326842F0010299
:100AC800DBB2326083F3118870BC7047012182F871
:100AD8005810DBB283F3118870BC7047611A7160DB
:100AE8009462E7E770B40468037B2268022101FA84
:100AF80003F31A4217D002691249134802EB420263
:100B080001EB421205785068016875B9C5685289C9
:100B180028684FF6FE7630402860C868D24392B203
:100B28000240CA60636070BC7047406902684FF653
:100B3800FE752A400260CA684FF6FF600240CA602C
:100B4800F0E700BFF4600020F060002010B50168F5
:100B5800047B0A680223A3401A420AD0054A406867
:100B680000241470026822F001021204120C0260C0
:100B78004B6010BDFC79002038B50E4B1B7804463D
:100B880000F1250543B9284614220B4934F07CF9B5
:100B9800012384F83A3038BD04220849203034F063
:100BA80073F928461422064934F06EF9012384F8B3
:100BB8003A3038BD312E0020647F0308322E0020E1
:100BC800372E002001231021112241704271037237
:100BD80003700371704700BF30B50446406D217142
:100BE8000368A26823F00103036087B06379009269
:100BF80013F0040F4FEA03324FEA032314BF4FF4F4
:100C08008055002503F4806302F400520195CDE974
:100C18000223002511F0010305952ED10493082322
:100C28008D07694648BF049321F052FE2079636D11
:100C3800617900F00202002A15BF4FF440324FF4E8
:100C480080324FF40034002410F0010F586808BFB8
:100C58002246CC074CBF024320EA02025A609A6837
:100C680009074CBF42F0080222F008029A601A688D
:100C780042F001021A6007B030BD042304930C232C
:100C8800CEE700BF30B50446406DA160036823F08D
:100C9800010303606379257987B013F0040F4FEAE5
:100CA80003324FEA032303F4806302F40052CDE9D0
:100CB8000223009114BF4FF480510021EB0748BF75
:100CC800042301914FF00001CDE9041154BF08231A
:100CD8000493694648BF0C23AD0748BF049321F02D
:100CE800F7FD2079636D617900F00202002A15BFD3
:100CF8004FF440324FF480324FF40034002410F0A7
:100D0800010F586808BF2246CC074CBF024320EAAF
:100D180002025A609A6809074CBF42F0080222F0A2
:100D280008029A601A6842F001021A6007B030BDE2
:100D380038B52C22002134F069F8034664211920C3
:100D480040F2DC521873197440F2022013215A82BF
:100D5800202240F21A4540F26C74188399760E20CE
:100D680002211A7701229D82DC8240F2753540F615
:100D7800430483F8220083F82A109A7383F8292001
:100D8800DD831C8419460248BDE838400CF006BDD6
:100D9800747F030840F0800026F054B816F0D2B9EA
:100DA80038B5224C94F88E3094F88F201844C0B28D
:100DB800904284F88E0005D3801AC0B29042FBD2CC
:100DC80084F88E00362016F0D5F994F88E50254414
:100DD800232095F8943303EB4303234493F89010AE
:100DE800FFF7DCFF95F8943303EB430323442420F7
:100DF80093F89110FFF7D2FF95F8943303EB430370
:100E08002344252093F89210FFF7C8FF95F8941310
:100E18000A20FFF7C3FF94F8C833082B00D038BD69
:100E28003A20BDE8384016F0A5B900BF28230020B5
:100E38001B4B1B6870B56BBB1A4B1D784DB31A4A18
:100E48001A4B11784FF4987202FB053540F20D36B3
:100E580010E058681C894460046844F00104046088
:100E6800A2F84860D06803F5987340F48070AB42EC
:100E7800D0600ED01A680029EBD15162B3F82C016A
:100E8800D4682043D06003F5987323F8041CAB4260
:100E9800F0D170BD16F080F90028CDD170BD00BF2B
:100EA8000C390020F4630020F0600020F863002073
:100EB80038B53C4B3C481A785B783C493C4C3D4D36
:100EC80002EB420203EBC30301EB430300EB4212C4
:100ED8002B60226032F048FE00213022364833F081
:100EE80095FF206831F07CF9344B03F1780102E07A
:100EF80006338B4253D01A78002AF9D19C78D878D7
:100F0800844202D358790028F2D02D492D4B0C7910
:100F18002D492E480A70C822642111FB04210022A1
:100F28002B4CDA61C3E90112C3E90322C3E90522A4
:100F380083F8202083F8212004600BF0B1FC254BB6
:100F48009FED255AB3F8CC2393F8CE339FED236A4F
:100F580006EE902AF8EEE66A214AC5EE265A11886E
:100F6800507907EE101A1F490B60538812791E49F1
:100F780007EE903AB8EEC77AF8EEE77A1B4BC1ED68
:100F8800005A27EE067A67EE867A18725A7283ED4F
:100F9800017AC3ED007ABDE838402DF0BFB90122CF
:100FA800B3E700BF64740020E07D00202A7F0020A2
:100FB8001C46002020460020B43A0020CC320020F5
:100FC800208900208C410020DC050020703800209A
:100FD8001671002028230020C0C9FB4817B7D13854
:100FE800D0370020E0860020E4860020B886002064
:100FF80010B50C4C94F80A34002B0B4B14BF01228B
:1010080000221A700DD004F57C710422074833F0D1
:101018003BFF04F2F53114220548BDE8104033F0D7
:1010280033BF10BD28230020312E0020322E00208F
:10103800372E002038B50A4C0A49042204F57C7082
:1010480033F022FF01251422074904F2F53033F06A
:101058001BFF84F80A54FFF7CBFF284638BD00BFB2
:1010680028230020322E0020372E0020F0B40C292F
:101078002BD8DFE801F0752A2A2A502A2A2A2C2A96
:101088002A2A0700046AB2F80CC0978816686B4DC4
:1010980024F480540462036A4468C16923F4005349
:1010A80043EA0C3321F4E641A84243EA073341EA14
:1010B800062100F0BC8005F50065A84200F0B78065
:1010C80092684460C16102640362F0BC7047046ABC
:1010D800B2F80CC097881668584D24F480740462DE
:1010E800036A4468C16923F4007343EA0C2321F0BE
:1010F8007301A84243EA072341EA060100F084800D
:1011080005F50065A8427FD092684460C161F0BCD3
:10111800C26303627047046AB2F80CC09788166805
:10112800464D24F010040462036A4468816923F080
:10113800200321F0807143EA0C1321F4E641A84210
:1011480043EA071341EA06214BD005F50065A8429A
:1011580047D0926844608161F0BC82630362704743
:10116800046A9389B2F804C01768344E24F0010465
:101178000462046A4568816921F4803124F002041C
:1011880043EA0C0321F07301B04243EA040341EA45
:1011980007010ED02A4CA0420BD004F54064A042AF
:1011A80007D004F58064A04203D004F58064A0420F
:1011B80010D1D489168A578AB2F806C023F00803DA
:1011C800234325F4407523F0040346EA07044CEA58
:1011D80003032543926845608161F0BC4263036262
:1011E8007047D589178AD68823F0800343EA051308
:1011F80024F44064558A23F0400344EA870443EA10
:10120800061344EA8504A4E7D589178AD68823F407
:10121800006343EA052324F44054558A23F4806389
:1012280044EA071443EA062344EA05146CE7158ADE
:1012380024F4804444EA851442E700BF002C0140AE
:10124800003401402DE9F84FA022804C8048814E9F
:10125800814FDFF82082DFF82092DFF820A20021FA
:1012680033F0D4FD7D48DFF818C2DFF818E204F146
:10127800A805A346DBF80030B34200F0CB80B3F1F9
:10128800804F00F0C980BB4200F0C880634500F081
:10129800D380734500F0D280434500F0D1804B45A0
:1012A80000F0D080534500F0CF806D4A934200F0A3
:1012B8008D8002F58062934208BF092300F0878081
:1012C8000BF11C0B5D45D5D1664EDFF8BC914FF094
:1012D80003080227A379002B73D023791D09013D48
:1012E800052D03F00F036CD836F8150040FA03F209
:1012F800D20766D54FF0010A0AFA03F3013B1840FA
:1013080033F09AF9584B5B5D184419EBC00558D077
:1013180059F830305548217A03F13842920A825CF4
:1013280002F01F005209022A0AFA00FA7ED0032AA4
:1013380076D0012A68D0B5F804C0BCFA8CF2C2F1A4
:101348001F0292B2D00803EB800002F00702056A80
:1013580092004FF00F0E0EFA02FE25EA0E05056206
:10136800056A01FA02F22A4302624FF0010E0022D6
:101378000EFA02F535EA0C0120D15000D3F808A086
:1013880008FA00F1C9430AEA010AC3F808A0D3F829
:1013980008A0C3F808A0B3F804A02AEA05059D80B0
:1013A8009D88ADB29D801D680D401D601D6807FABF
:1013B80000F028431860D8680140D9600132102A2B
:1013C800D6D11C34A34585D1BDE8F88F0823284A17
:1013D80002EBC30301221B7903F01F015B09022BF7
:1013E80002FA01F208D0032B0AD0012B7FF468AF70
:1013F80043691A43426163E783691A4382615FE77D
:10140800C3691A43C2615BE7144842694AEA0202A7
:10141800426190E70023DAE70123D8E70223D6E701
:101428000E48C2694AEA0202C26184E70B4882692F
:101438004AEA020282617EE70323C8E70423C6E77B
:101448000523C4E70623C2E70723C0E7307703086C
:10145800D0490020002C0140000400400010024048
:1014680000440140D8770308E4770308F8760308B6
:10147800A8760308001400400034014000400140F1
:1014880000080040001000408C5E002000B9704742
:1014980003682DE9F04F03F138449C4EA40A012556
:1014A800345D04F01F066409022C05FA06F500F005
:1014B8007481032C00F06C81012C00F0228180885B
:1014C800B0FA80F4C4F11F04A4B2E50803EB850563
:1014D80004F007042E6AA4000F27A74026EA07068F
:1014E8002E622E6A01F00307A2407C1E3243012CB3
:1014F800C1F3810EC1F300182A62C1F3411140F211
:101508000981C6070BD51A6822F003021A601A6807
:101518003A431A60DA6822F003020A43DA60850760
:101528000DD51A6822F00C021A601A6842EA87027E
:101538001A60DA6822F00C0242EA8102DA60440793
:101548000DD51A6822F030021A601A6842EA0712AA
:101558001A60DA6822F0300242EA0112DA60020701
:101568000DD51A6822F0C0021A601A6842EA87127A
:101578001A60DA6822F0C00242EA8112DA60C6060E
:101588000DD51A6822F440721A601A6842EA0722D6
:101598001A60DA6822F4407242EA0122DA608506AB
:1015A8000DD51A6822F440621A601A6842EA872246
:1015B8001A60DA6822F4406242EA8122DA6044065C
:1015C8000DD51A6822F440521A601A6842EA0732A6
:1015D8001A60DA6822F4405242EA0132DA600206FE
:1015E8000DD51A6822F440421A601A6842EA873216
:1015F8001A60DA6822F4404242EA8132DA60C605AB
:101608000DD51A6822F440321A601A6842EA074275
:101618001A60DA6822F4403242EA0142DA6085054B
:101628000DD51A6822F440221A601A6842EA8742E5
:101638001A60DA6822F4402242EA8142DA604405FC
:101648000DD51A6822F440121A601A6842EA075245
:101658001A60DA6822F4401242EA0152DA6002059E
:101668000DD51A6822F440021A601A6842EA8752B5
:101678001A60DA6822F4400242EA8152DA60C6044B
:101688000DD51A6822F040721A601A6842EA076299
:101698001A60DA6822F0407242EA0162DA60850470
:1016A8000DD51A6822F040621A601A6842EA876209
:1016B8001A60DA6822F0406242EA8162DA60440421
:1016C8000DD51A6822F040521A601A6842EA077269
:1016D8001A60DA6822F0405242EA0172DA600204C3
:1016E8000DD51A6822F040421A601A6842EA8777D4
:1016F8001F60DA6822F0404242EA8171D960BDE891
:10170800F08F034C666935436561D8E6F8760308BF
:101718000010024000224FF0010C4FF003090CFAB0
:1017280002F636EA00042ED15400D3F808A009FACC
:1017380004F5ED4305EA0A0AC3F808A0D3F808B08F
:101748000EFA04FA4AEA0B0AC3F808A0B3F804A090
:101758002AEA06069E80B3F804A008FA02F646EACA
:101768000A06B6B29E801E682E401E60D3F800A0FE
:1017780007FA04F646EA0A061E60DE6801FA04F46F
:1017880035402C43DC600132102AC8D1BDE8F08F07
:10179800044CE6693543E56191E6024CA669354398
:1017A800A5618CE60010024003682DE9F04F03F1B3
:1017B8003845A94EAD0A0124755D05F01F066D096F
:1017C800022D04FA06F400F08D81032D00F08581C6
:1017D800012D00F03B818088B0FA80F4C4F11F0429
:1017E800A4B2E50803EB850504F007042E6AA400FB
:1017F8000F27A74026EA07062E622E6A01F0030784
:1018080002FA04F47A1E3443012AC1F3810EC1F3AB
:1018180000182C62C1F3411140F22281C60700F181
:101828000881850700F1F680440700F1E48002078B
:1018380000F1D280C60600F1C080850600F1AE80B6
:10184800440600F19C80020600F18A80C60578D41F
:10185800850567D4440556D4020545D4C60434D456
:10186800850423D4440412D4020401D4BDE8F08FC3
:101878001A6822F040421A601A6842EA87771F60A5
:10188800DA6822F0404242EA8171D960EEE71A68CC
:1018980022F040521A601A6842EA07721A60DA683F
:1018A80022F0405242EA0172DA60DDE71A6822F05B
:1018B80040621A601A6842EA87621A60DA6822F09F
:1018C800406242EA8162DA60CCE71A6822F040722C
:1018D8001A601A6842EA07621A60DA6822F04072EF
:1018E80042EA0162DA60BBE71A6822F440021A6031
:1018F8001A6842EA87521A60DA6822F4400242EA19
:101908008152DA60AAE71A6822F440121A601A684B
:1019180042EA07521A60DA6822F4401242EA015297
:10192800DA6099E71A6822F440221A601A6842EAD3
:1019380087421A60DA6822F4402242EA8142DA6079
:1019480088E71A6822F440321A601A6842EA0742A5
:101958001A60DA6822F4403242EA0142DA6077E734
:101968001A6822F440421A601A6842EA87321A60FA
:10197800DA6822F4404242EA8132DA6066E71A689D
:1019880022F440521A601A6842EA07321A60DA688A
:1019980022F4405242EA0132DA6054E71A6822F42B
:1019A80040621A601A6842EA87221A60DA6822F4EA
:1019B800406242EA8122DA6042E71A6822F4407201
:1019C8001A601A6842EA07221A60DA6822F440723A
:1019D80042EA0122DA6030E71A6822F0C0021A608F
:1019E8001A6842EA87121A60DA6822F0C00242EAEC
:1019F8008112DA601EE71A6822F030021A601A684B
:101A080042EA07121A60DA6822F0300242EA01124A
:101A1800DA600CE71A6822F00C021A601A6842EAC7
:101A280087021A60DA6822F00C0242EA8102DA6060
:101A3800FAE61A6822F003021A601A683A431A6032
:101A4800DA6822F003020A43DA60EAE6034D6E69B7
:101A580034436C61BFE600BFF8760308001002400B
:101A680000224FF0010C4FF003090CFA02F636EA97
:101A780000042ED15400D3F808A009FA04F5ED4368
:101A880005EA0A0AC3F808A0D3F808B00EFA04FA5F
:101A98004AEA0B0AC3F808A0B3F804A02AEA060623
:101AA8009E80B3F804A008FA02F646EA0A06B6B21F
:101AB8009E801E682E401E60D3F800A007FA04F628
:101AC80046EA0A061E60DE6801FA04F435402C4333
:101AD800DC600132102AC8D1C8E6054DEE693443EE
:101AE800EC6178E6024DAE693443AC6173E600BF41
:101AF8000010024010B50409013C052C17D80E4B04
:101B080033F8142000F00F0042FA00F313F0010339
:101B18000FD0012303FA00F00138104032F08CFD99
:101B2800064A074B125D104403EBC00010BD0020AD
:101B380010BD184610BD00BFD8770308E477030826
:101B48008C5E00202DE9F8432E4D2A69EB6812EAD5
:101B5800030826D02C4E4FF00047B8FA88F327FA2E
:101B680003F2D2431B3B2A6108EA0208042B15D86A
:101B7800DFE803F0352B22190300D6F89C30002B40
:101B880037D1EB6A1FFA83F9D6F8984034B1236845
:101B98002046494698476468002CF8D1B8F1000FF0
:101BA800DBD1BDE8F883B06F696B036889B29847E9
:101BB800B8F1000FD1D1F4E7F06FA96B036889B2CF
:101BC8009847B8F1000FC8D1EBE7D6F88000E96B69
:101BD800036889B29847B8F1000FBED1E1E7D6F89B
:101BE8008400296C036889B29847B8F1000FB4D112
:101BF800D7E703F1FF3900231FFA89F9C6F89C30AB
:101C0800C2E700BF00340140D04900202DE9F84365
:101C18002E4D2A69EB6812EA030826D02C4E4FF0A5
:101C28000047B8FA88F327FA03F2D2431B3B2A612C
:101C380008EA0208042B15D8DFE803F0352B22192F
:101C48000300D6F89C30002B37D1EB6A1FFA83F9D2
:101C5800D6F8984034B123682046494698476468C6
:101C6800002CF8D1B8F1000FDBD1BDE8F883B06FD4
:101C7800696B036889B29847B8F1000FD1D1F4E7CE
:101C8800F06FA96B036889B29847B8F1000FC8D103
:101C9800EBE7D6F88000E96B036889B29847B8F19A
:101CA800000FBED1E1E7D6F88400296C036889B239
:101CB8009847B8F1000FB4D1D7E703F1FF390023F3
:101CC8001FFA89F9C6F89C30C2E700BF003401400A
:101CD800D04900202DE9F8432B4D2A69EB6812EA18
:101CE800030824D0294E4FF00047B8FA88F327FAA2
:101CF80003F2D2431B3B2A6108EA0208042B13D8DB
:101D0800DFE803F0322920170300736F002B34D16A
:101D1800EB6A1FFA83F9346F34B1236820464946C9
:101D280098476468002CF8D1B8F1000FDDD1BDE800
:101D3800F883306D696B036889B29847B8F1000F72
:101D4800D3D1F4E7706DA96B036889B29847B8F1ED
:101D5800000FCAD1EBE7B06DE96B036889B2984709
:101D6800B8F1000FC1D1E2E7F06D296C036889B2C0
:101D78009847B8F1000FB8D1D9E703F1FF3900232C
:101D88001FFA89F97367C6E700080040D0490020A8
:101D98002DE9F8432B4D2A69EB6812EA030824D091
:101DA800294E4FF00047B8FA88F327FA03F2D243D6
:101DB8001B3B2A6108EA0208042B13D8DFE803F06A
:101DC800322920170300F36C002B34D1EB6A1FFA79
:101DD80083F9B46C34B1236820464946984764684F
:101DE800002CF8D1B8F1000FDDD1BDE8F883B06A56
:101DF800696B036889B29847B8F1000FD3D1F4E74B
:101E0800F06AA96B036889B29847B8F1000FCAD184
:101E1800EBE7306BE96B036889B29847B8F1000FBC
:101E2800C1D1E2E7706B296C036889B29847B8F1B1
:101E3800000FB8D1D9E703F1FF3900231FFA89F958
:101E4800F364C6E700040040D04900202DE9F843B8
:101E58004FF080452A69EB6812EA030824D0294E1E
:101E68004FF00047B8FA88F327FA03F2D2431B3B36
:101E78002A6108EA0208042B13D8DFE803F03229A4
:101E880020170300736A002B34D1EB6A1FFA83F919
:101E9800346A34B123682046494698476468002C60
:101EA800F8D1B8F1000FDDD1BDE8F8833068696B6F
:101EB800036889B29847B8F1000FD3D1F4E7706886
:101EC800A96B036889B29847B8F1000FCAD1EBE74C
:101ED800B068E96B036889B29847B8F1000FC1D1BF
:101EE800E2E7F068296C036889B29847B8F1000FF7
:101EF800B8D1D9E703F1FF3900231FFA89F97362D2
:101F0800C6E700BFD04900201F4B98422CD0B0F143
:101F1800804F2BD0A3F59433984229D003F58063E2
:101F2800984227D003F50063984225D003F58063D3
:101F3800984223D003F59033984221D003F54063AB
:101F480098421FD003F58063984207D003F5806359
:101F5800984208BF092202D00020704708220B4B84
:101F680003EBC203187970470022F8E70122F6E76D
:101F78000222F4E70322F2E70422F0E70522EEE763
:101F88000622ECE70722EAE7002C0140A8760308BE
:101F980070B4104E002332461D46042403E001337A
:101FA800062B0CD0947930EA040402F11C02F6D115
:101FB800A94207D001330135062BEDB2F2D100203A
:101FC80070BC7047C3EBC30306EB830370BC18797E
:101FD800704700BF3077030810B500210446012080
:101FE800FFF7D6FF207010BDE0B110B40E4C2821C9
:101FF800224688424FF0000302F11C0207D0013349
:10200800062B0BD01179884202F11C02F7D1C3EBE1
:10201800C30304EB83005DF8044B704700205DF8B0
:10202800044B7047704700BF307703082DE9F04F25
:1020380085B0CDE902109B4DDFF878A2029B013BE9
:102048000293013300F02A8124F028FC964C974F24
:10205800DFF864E2964E4FF4FA7301934FF01008DC
:10206800DEF80430C3F30803002B40F0F680EFF3EA
:102078001183002B40F0F1802068AA6823689842F9
:10208800FAD133689A42F7D8D7F800C04FF47A717A
:1020980001FB0CF39B1AB3FBFCF301FB00304FF47C
:1020A8007A7C4FF00109DEF80430C3F30803002BF3
:1020B80040F0B580EFF31183002B40F0B080236827
:1020C800A96822689342FAD132689142F7D83A68EF
:1020D8000CFB02FBABEB0101B1FBF2F10CFB0313B0
:1020E8001B1AB3F57A7FDED3019B013B0193B7D16D
:1020F800039B6F4E581CC0B224F024FADFF8B8E1F5
:102108004FF47A730193DEF80430C3F308034FF0F9
:102118001008002B44D1EFF31183002B40D1206825
:10212800AA6823689842FAD133689A42F7D8D7F850
:1021380000C04FF47A7101FB0CF39B1AB3FBFCF35C
:1021480001FB00304FF47A7C4FF00109DEF80430CF
:10215800C3F30803002B44D1EFF31183002B40D1C4
:102168002368A96822689342FAD132689142F7D865
:102178003A680CFB02FBABEB0101B1FBF2F10CFB83
:1021880003131B1AB3F57A7FE0D3019B013B01933C
:102198003FF454AFDEF80430C3F30803002BBAD081
:1021A800EFF3118388F31288D5F808C02A68D203A0
:1021B80004D50122CAF80020D5F808C02068DAF84A
:1021C8000090DBB283F3118839684FF47A7248447F
:1021D80002FB01F3A3EB0C03B3FBF1F302FB0030AA
:1021E800B0E7EFF3118188F31288D5F808B02B68AF
:1021F800DB0344BFCAF80090D5F808B02368DAF8C2
:102208000020C9B281F31188396813440CFB01F22C
:10221800A2EB0B02B2FBF1F20CFB0323B1E7EFF3E5
:10222800118188F31288D5F808B02B68DB0344BF06
:10223800CAF80090D5F808B02368DAF80020C9B2C7
:1022480081F31188396813440CFB01F2A2EB0B02ED
:10225800B2FBF1F20CFB032342E7EFF3118388F39F
:102268001288D5F808C02A68D20304D50122CAF812
:102278000020D5F808C02068DAF80090DBB283F3B4
:10228800118839684FF47A72484402FB01F3A3EBD2
:102298000C03B3FBF1F302FB003000E705B0BDE827
:1022A800F08F00BF10E000E0B04B0020B44B0020DE
:1022B800B84B0020AC4B002000ED00E0224B5B68DF
:1022C800C3F3080330B4D3B9EFF31183BBB91F4A82
:1022D8001F4D20481368846811688B42FAD1296819
:1022E8008C42F7D81C4A11684FF47A7202FB01F04D
:1022F800001B30BCB0FBF1F002FB03007047EFF3AA
:102308001182102383F3128803F1E023D2B29C6870
:10231800196811F4803F11491EBF012008609C68AC
:102328000A4B18680B6882F311880B4A11684FF43E
:102338007A72034402FB01F0001B30BCB0FBF1F0E1
:1023480002FB0300704700BF00ED00E0B04B002027
:10235800B84B002010E000E0B44B0020AC4B00204C
:102368002DE9F84F8046274C274DDFF8A490274EDB
:10237800FFF7A4FFDFF89CE0DFF89CC04FF0100ADD
:102388004FF47A77DCF80430C3F30803CBB9EFF3E2
:102398001183B3B92368A96822689342FAD13268D5
:1023A8009142F7D8DEF8002007FB02FBABEB0101F6
:1023B800B1FBF2F107FB03131B1A4345E2D3BDE857
:1023C800F88FEFF311818AF31288D5F808B02B68DB
:1023D800DB0304D50123C9F80030D5F808B0236819
:1023E800D9F80020C9B281F31188DEF8001013442F
:1023F80007FB01F2A2EB0B02B2FBF1F207FB03238E
:10240800DAE700BFB04B002010E000E0B84B002036
:10241800AC4B0020B44B002000ED00E02DE9F04F5C
:10242800DFF834C1494CDFF834E1DFF83481484E35
:10243800824648481AF1FF3AC0F08680DCF804303A
:10244800C3F30803002B5ED1EFF31183002B5AD19D
:102458000568A26803689D42FAD133689A42F7D8A2
:10246800DEF800704FF47A7101FB07F39B1AB3FB97
:10247800F7F301FB0535DCF80430C3F308034FF02C
:1024880010094FF47A77F3B9EFF31183DBB90368D6
:10249800A16802689342FAD132689142F7D8DEF80F
:1024A800002007FB02FBABEB0101B1FBF2F107FBDC
:1024B80003135B1BB3F57A7FBCD2DCF80430C3F39B
:1024C8000803002BE0D0EFF3118189F31288D4F8C8
:1024D80008B02368DB0304D50123C8F80030D4F81A
:1024E80008B00368D8F80020C9B281F31188DEF873
:1024F8000010134407FB01F2A2EB0B02B2FBF1F24E
:1025080007FB0323D5E7EFF31183102282F3128828
:10251800A1682268D20303D50122C8F80020A16867
:10252800D0F80090D8F80050DBB283F31188DEF8B9
:1025380000704FF47A724D4402FB07F35B1AB3FB49
:10254800F7F302FB053596E7BDE8F08F10E000E0F1
:10255800B84B0020B04B002000ED00E0B44B002049
:10256800AC4B002038B50F4C054694F893130C205B
:10257800FEF714FC08211820FEF710FC85B994F822
:1025880091130920FEF70AFC0D210720FEF706FC2F
:1025980016211920FEF702FC0A20BDE838403DE765
:1025A8000321EEE72823002030B4EFF31183102233
:1025B80082F31288084809490268094D094C01321A
:1025C80002608A682A6000222260DBB20A6883F30C
:1025D800118830BC704700BFB04B002010E000E00D
:1025E800B84B0020AC4B00201D4B70B59C68636D48
:1025F800A26BDD69CAB1E36B33B12B0700D470BDA0
:10260800636D08221A6270BD2A06F6D5D4E909025C
:102618008242616D11D0501CA669A062B25C266925
:102628000A85B042E9D3A362E7E7A906E3D5E26ADF
:1026380042B1988C216B9047DDE70B6823F080034B
:102648000B60DAE7E1699B8C6069DBB24E1CE661DE
:102658004354E169E368994228BFE261CBE700BFD0
:10266800943F00201D4B70B51C68636DA26BDD693B
:10267800CAB1E36B33B12B0700D470BD636D082278
:102688001A6270BD2A06F6D5D4E909028242616D44
:1026980011D0501CA669A062B25C26690A85B042B6
:1026A800E9D3A362E7E7A906E3D5E26A42B1988CC9
:1026B800216B9047DDE70B6823F080030B60DAE7B6
:1026C800E1699B8C6069DBB24E1CE6614354E169A9
:1026D800E368994228BFE261CBE700BF943F00203E
:1026E800002A12DD70B504460D468E182368204670
:1026F8009B6898470028F9D0236815F8011B1B68C8
:1027080020469847B542F1D170BD70470368DB6A2F
:1027180003B11847704700BF03689B6A03B11847A5
:10272800704700BF03682DE9F0415D6A1DB12B4673
:10273800BDE8F0411847002A174611DD04460E4649
:102748000F4400E023689B68204698470028F9D08A
:10275800236816F8011B1B6820469847BE42F1D132
:10276800BDE8F08103689B69184700BF03685B698F
:10277800184700BF0368DB68184700BF03689B68F9
:10278800184700BF03685B68184700BF03681B68E9
:10279800184700BF014B1868F8E700BFA8380020A9
:1027A800054B53F8203033B11A689B88918A0B4245
:1027B80018BF1B04936170477C4B00202DE9F04F34
:1027C8004A484B4B4B4C4FF090414FF0010A4FF0A9
:1027D80002094FF004084FF0080E4FF0100C2027A4
:1027E8004026802530F8022B12F0010F03D0196023
:1027F800A3F804A0083312F0020F03D01960A3F85D
:102808000490083312F0040F03D01960A3F8048071
:10281800083312F0080F03D01960A3F804E0083356
:1028280012F0100F03D01960A3F804C0083312F097
:10283800200F02D019609F80083312F0400F02D099
:1028480019609E80083312F0800F02D019609D80B5
:10285800083312F4807F05D04FF4807B1960A3F809
:1028680004B0083312F4007F05D04FF4007B1960E0
:10287800A3F804B0083312F4806F05D04FF4806BCE
:102888001960A3F804B0083312F4006F05D04FF4B0
:10289800006B1960A3F804B0083312F4805F05D008
:1028A8004FF4805B1960A3F804B0083312F4005F9A
:1028B80005D04FF4005B1960A3F804B0083312F494
:1028C800804F05D04FF4804B1960A3F804B008334B
:1028D800D20B04D04FF4004219609A80083301F5F6
:1028E8008061A1427FF47EAFBDE8F08FD8770308FE
:1028F8008C5E00200018004800B97047036803F197
:1029080038422DE9F04F920AB24DAA5C02F01F0539
:1029180052090124022A04FA05F400F05F81032A0F
:1029280000F05381012A00F00D8101F003077A1E9F
:10293800012AC1F3810EC1F300188488C1F3411143
:1029480040F20581E6070BD51A6822F003021A60E7
:102958001A683A431A60DA6822F003020A43DA6016
:10296800A5070DD51A6822F00C021A601A6842EA07
:1029780087021A60DA6822F00C0242EA8102DA6001
:1029880060070DD51A6822F030021A601A6842EA08
:1029980007121A60DA6822F0300242EA0112DA609D
:1029A80022070DD51A6822F0C0021A601A6842EA96
:1029B80087121A60DA6822F0C00242EA8112DA60ED
:1029C800E6060DD51A6822F440721A601A6842EABF
:1029D80007221A60DA6822F4407242EA0122DA60B9
:1029E800A5060DD51A6822F440621A601A6842EAF0
:1029F80087221A60DA6822F4406242EA8122DA60A9
:102A080060060DD51A6822F440521A601A6842EA24
:102A180007321A60DA6822F4405242EA0132DA6078
:102A280022060DD51A6822F440421A601A6842EA52
:102A380087321A60DA6822F4404242EA8132DA6068
:102A4800E6050DD51A6822F440321A601A6842EA7F
:102A580007421A60DA6822F4403242EA0142DA6038
:102A6800A5050DD51A6822F440221A601A6842EAB0
:102A780087421A60DA6822F4402242EA8142DA6028
:102A880060050DD51A6822F440121A601A6842EAE5
:102A980007521A60DA6822F4401242EA0152DA60F8
:102AA80022050DD51A6822F440021A601A6842EA13
:102AB80087521A60DA6822F4400242EA8152DA60E8
:102AC800E6040DD51A6822F040721A601A6842EAC4
:102AD80007621A60DA6822F0407242EA0162DA603C
:102AE800A5040DD51A6822F040621A601A6842EAF5
:102AF80087621A60DA6822F0406242EA8162DA602C
:102B080060040DD51A6822F040521A601A6842EA29
:102B180007721A60DA6822F0405242EA0172DA60FB
:102B280022040DD51A6822F040421A601A6842EA57
:102B380087771F60DA6822F0404242EA8171D960E3
:102B4800BDE8F08F244A55692C435461EDE6002214
:102B58004FF0010C4FF003090CFA02F636EA0400B4
:102B68002ED15000D3F808A009FA00F5ED430AEA7F
:102B7800050AC3F808A0D3F808B00EFA00FA4AEA22
:102B88000B0AC3F808A0B3F804A02AEA06069E8038
:102B9800B3F804A008FA02F646EA0A06B6B29E801E
:102BA8001E682E401E60D3F800A007FA00F646EA19
:102BB8000A061E60DE6801FA00F035402843D86036
:102BC8000132102AC8D1BDE8F08F034AD5692C43D9
:102BD800D461AAE6F876030800100240024A956913
:102BE8002C439461A1E600BF0010024010B10368B5
:102BF80082881A85704700BF10B1036882889A617D
:102C0800704700BF014BD3F80C04F5E728230020D8
:102C180018B1838811B10268936170471B04FAE701
:102C28000E4B1B8801463BB90D4B0E4A1B781068AA
:102C38000BB981F00101EBE70B4B5A691AB11A681D
:102C480010B910605874704708480949008891FB0A
:102C5800F0F1012011605874704700BF884B0020C4
:102C68008A4B00208C4B0020904B0020A84B002062
:102C780020A1070038B5074B03EBC0052C796A790A
:102C88004C40A24205D053F830002146FFF7C0FF60
:102C98006C7138BD9C5D002010B40A4B0A4A1C7840
:102CA80001238340234052F8200029B9B3FA83F165
:102CB80049095DF8044BABE7191C18BF01215DF801
:102CC800044BA5E7784B00207C4B002030B102680C
:102CD8008388128A1A4214BF01200020704700BF5F
:102CE800F8B50546F0200E46FEF754F80446F120E4
:102CF800FEF750F8802C01D00020F8BD0328FBD146
:102D08002B783B4C082B84F8C8334FD0092B3AD08A
:102D1800384B1A780AB903221A703748C4F81804CD
:102D280000263227A0F1400531468771C671FFF7AA
:102D3800E3FD05F1B8030522184685F8BE2085F89D
:102D4800BF60C4F80C3423F039F805F14803272292
:102D5800184685F84E2085F84F60C4F81C3423F0D7
:102D680087F8D4F81C04FFF7B1FF244B84F83064CB
:102D78001B6884F82004C4F82874C4F82464C4F8D0
:102D88002C340120F8BD10221D4B32701B681D49E0
:102D98001D4AC4F810145B05C4F88820B8D51B4D2B
:102DA8002B78E3B1002384F81534B1E7144A337063
:102DB8001368174A1749C4F888205A05C4F810142C
:102DC800A6D5154B1A7842B9144A15491160022242
:102DD8001A70012384F814349AE70023FAE7114B98
:102DE800114A1A6021F088FD02232B700123DAE7CB
:102DF80028230020542B0020CC5E0020B04B00205C
:102E080080520020693200085D070008DB46002078
:102E1800A1080008ED380008CD46002074410020C4
:102E28003D0A0008704100203D0800081249D1F809
:102E38001C3410B50446BBB11846FFF747FF91F89C
:102E4800203453B148B90D4B81F8200401221A707F
:102E58007CB1002220461A7010BD084B81F820046E
:102E680018780028F4D110BD044B18780028FAD03F
:102E7800EEE7012010BD00BF28230020882C002089
:102E88002DE9F0410C4E356873691D4011D0DFF80B
:102E98002C800127B5FA85F4C4F11F0408EB8403DC
:102EA80007FA04F4D3F8340403689847A543746117
:102EB800F0D1BDE8F08100BF0004014028230020C4
:102EC8002DE9F0410C4E356873691D4011D0DFF8CB
:102ED8002C800127B5FA85F4C4F11F0408EB84039C
:102EE80007FA04F4D3F8340403689847A5437461D7
:102EF800F0D1BDE8F08100BF000401402823002084
:102F08002DE9F0410C4E356873691D4011D0DFF88A
:102F18002C800127B5FA85F4C4F11F0408EB84035B
:102F280007FA04F4D3F8340403689847A543746196
:102F3800F0D1BDE8F08100BF000401402823002043
:102F48002DE9F0410C4E356873691D4011D0DFF84A
:102F58002C800127B5FA85F4C4F11F0408EB84031B
:102F680007FA04F4D3F8340403689847A543746156
:102F7800F0D1BDE8F08100BF000401402823002003
:102F88002DE9F0410C4E356873691D4011D0DFF80A
:102F98002C800127B5FA85F4C4F11F0408EB8403DB
:102FA80007FA04F4D3F8340403689847A543746116
:102FB800F0D1BDE8F08100BF0004014028230020C3
:102FC8002DE9F0410C4E356873691D4011D0DFF8CA
:102FD8002C800127B5FA85F4C4F11F0408EB84039B
:102FE80007FA04F4D3F8340403689847A5437461D6
:102FF800F0D1BDE8F08100BF000401402823002083
:103008002DE9F0410C4E356873691D4011D0DFF889
:103018002C800127B5FA85F4C4F11F0408EB84035A
:1030280007FA04F4D3F8340403689847A543746195
:10303800F0D1BDE8F08100BF000401402823002042
:10304800094A10B59369094C43F00103936104F2EE
:1030580034404022002131F0D9FE4FF0FF33C4F84C
:103068007434C4F8773410BD0010024028230020BF
:1030780010B58B680160044698470022FF230121A0
:10308800A2736373217310BD03681B6A184700BFDE
:1030980070B44E1C0568C2728672AC69A44670BCD6
:1030A800604700BF2DE9F041044618460D46164614
:1030B8001F4630F0D5FF2844A0722068E6722946E2
:1030C80045693B4632462046AC46BDE8F04160477C
:1030D800036810B504461B689847236820469B6818
:1030E8009847A37B0133A37310BD00BF10B50368D5
:1030F80004469B689847FF2301226373227310BD1F
:103108000B4B984211D0A3F57843984202D04FF068
:10311800FF3070470122074B03EB02135A89013233
:1031280092B25A81588980B270470022F3E700BFF3
:1031380000300140505D0020F8B584894FF6FF76D5
:103148004FF47A742BB311B30F78013101E0B44214
:1031580017D00589013CAD07A4B2F8D507734FF421
:103168007A7402E0BCB2B4420BD00589ED0704F1D1
:10317800FF37F7D5057BEDB20AB115700132013B77
:10318800E0E7FFF7BDFF003018BF0120F8BDFF27BB
:10319800DFE70120F8BD00BF08B540F2E93300E0E1
:1031A8009BB10289013B12F0020F9BB2F8D0017368
:1031B80040F2E93300E043B10289013B12F0010F0C
:1031C8009BB2F8D0007BC0B208BDFFF799FFC0B230
:1031D80008BD00BFF8B5114E04463B200D4613F05C
:1031E800C9FFB068FFF702FD70687F21FFF7D4FFC1
:1031F800074655B1013D54FA85F5013C14F8011F05
:103208007068FFF7C9FFAC42F8D1B068FFF7F4FC6B
:10321800352013F0AFFF3846F8BD00BFBC4B002087
:10322800F8B50E4E0446B0680D46FFF7DFFC70682F
:10323800FF21FFF7B1FF07465DB1013D54FA85F55F
:10324800013CFF217068FFF7A7FF04F8010FAC42AB
:10325800F7D1B068FFF7D0FC3846F8BDBC4B00206A
:103268002DE9F04F0B78063B83B00D460746042B3B
:1032780000F28380DFE803F0D5850340A300CD4C3E
:10328800D4F81804FFF722FD20B194F88034002BFD
:1032980000F0278194F88834D4F87C64002B40F03F
:1032A800D380FFF70BF8D4F8282442F22833801B88
:1032B80003FB02F3834260DA94F8E514002900F076
:1032C8000D81D4F80C04FFF791FCBB4B1B7881F0FF
:1032D8000101032B84F8E51402D1B84B00221A80AF
:1032E8000120FDF75DFD342013F044FF0723002083
:1032F8002B7003B0BDE8F08FAE4CD4F8843403F2E1
:103308008F16FEF7DBFFD4F87C34C01A864234DA15
:10331800362013F02FFF23F0AFFD3A2013F02AFFD9
:103328001E20FFF71DF8362013F024FF94F8B4147C
:103338000131C9B204F2B440FFF74CFF94F81534D8
:10334800A3B19F4AD4F8E8341268D31A0020182B86
:103358008DF8070040F2918102AF012307F8013D83
:10336800C4F8E8243946002220F09AFF94F8803403
:103378000A222A70002B40F00181002003B0BDE82A
:10338800F08FFEF79BFF8B4C00260822C4F87C04C4
:1033980041F2B4432A703046C4F8843484F8806417
:1033A800FFF744FD00283FF46BAF3223C4F87C6478
:1033B800C4F824642E703046C4F82834DEE77D4E05
:1033C800FEF77CFFD6F88424D6F87C3402F67462C3
:1033D800C01A8242D1DAFEF771FF7A4FC6F87C0430
:1033E80041F2B4437878C6F88434002486F88044DF
:1033F800FDF7D6FC342013F0BDFED6F82434642B38
:1034080000F2B180704A1278122A08BF6F4A03F19D
:10341800010308BF5380C6F8243408232B7000200A
:10342800ACE7644B2F22002083F88F20FFF79AF82F
:1034380007232B700120FDF7B3FC342013F09AFE0C
:10344800002003B0BDE8F08FFEF738FFD4F88434CD
:10345800801B8342BFF625AF09232B7094F8913364
:1034680084F8B53494F8922384F8B6240E2384F8AB
:10347800B43494F8C814FB7884F8B73400297FD0A2
:1034880094F88C2062F07F0284F8B8247A7D81F069
:10349800010184F8C814110740F1A2808821002294
:1034A80084F8B91484F8C924494F4A4907F1090C2A
:1034B800002001E017F8013F83EA102201EB4202E5
:1034C800BC45B2F86C3083EA00231BB298B2F1D144
:1034D800000A84F8C10484F8C234E2E6FFF792FBDC
:1034E800F3E6FB20FDF756FCFB20FDF753FC00F04C
:1034F8007F06202E53D8002E3FF4CCAE31463846F6
:10350800FFF78EFEF01F10F0FF00B446A6F1040E80
:1035180000F0AD81FE1C2F4932464FF0000912F829
:10352800013B83EA192301EB4303A2EB060AB3F834
:103538006C30504583EA09231FFA83F9EFD84FEA24
:10354800192017F80E30834200F0DC801E4AD4F8A8
:10355800F03412780133122AC4F8F0347FF49AAEAA
:103568001A4A938096E632230122C6F828340723A4
:1035780086F8884420463A702B70FFE60220FDE664
:1035880094F8C723002A00F057811348134A007B98
:1035980032F81020C2F3461284F8B82476E72021C6
:1035A8003846FFF73DFEFE1C4FF01C0E4FF0200C76
:1035B8001920B0E728230020542B00207C2B002062
:1035C800B04B002000000020456F0020506F002005
:1035D800DF270020F04E0308504B0020704B0020DE
:1035E800C2F3011112F0400240F02B81481C94F8FC
:1035F800C91400F0030081423FF456AF94F8A87450
:1036080094F8E43494F80080AF4807F0F00761F3C9
:10361800010784F8B9745F1C984504EB030C5FFA42
:1036280082FE07F03F0302F1010200F022819CF8BC
:10363800047000F8017B052AEDD184F8E43496463D
:10364800A24884F8BAE4844601EB41074A1C790091
:103658005CF812ED40F801E0574207F00307084410
:1036680002F00302BCF804C094F8B734A0F804C010
:1036780058BF7A4284F8C92416E794F8B094DFF862
:10368800608209F1010909F003094FEAC90A834672
:103698000DF10707AAEB0906264496F89234002B89
:1036A8003FF460AE00287FF45DAE96F88C2494F861
:1036B800EC34934202D313E00028EBD1F2183946D8
:1036C800002392F88D04424621F0DAF994F8EC349C
:1036D80096F88C240133DBB2934284F8EC34EBD3B4
:1036E8009A42D7D1AAEB090AA24409F1010384F846
:1036F800B09403F003098AF892B484F8ECB44FEA62
:10370800C90AC7E707EB0C015FFA89F311F8032C24
:103718009A427FF41BAF3B781D2B7FF417AF7A7862
:1037280094F891339A427FF411AFBA7894F89233AF
:103738009A427FF40BAF94F8C62322B1BB7913B138
:103748009A427FF403AF00230122C4F82434C4F85A
:103758008434C4F82824FFF755FA5D4A13789BB1DE
:103768007B793E7994F88F009B00DBB286425370D8
:1037780005D300F13F0CB4457EDB013353700120C3
:10378800002384F88804137011F8020C31F006F94C
:103798007A7D504994F8A9C402F003023E46C2EB70
:1037A800C20356F8160FC850C818E1180CF10103E7
:1037B800B688868003F00303012600209A4281F828
:1037C800926484F8A8045ED01E4603E00EF0030657
:1037D800B24258D0C6EBC601214406F1010E91F859
:1037E80092040028F2D194F8A824D4F8AC1466F313
:1037F8000512D2B242F040020131560684F8A824DC
:10380800C4F8AC143FD504290ED9032384F89204D4
:1038180084F8990484F8A00484F8A704C4F8AC04D4
:1038280084F8B03484F8A934FEF748FD0123C4F8BD
:103838007C0484F880342DE5274A127802F07F0250
:10384800AAE6264F94F8A82401EB410C07F11200D0
:1038580000EB4C0002F0F002D0F800C08088C4F8F9
:10386800BAC461F30102B88084F8B9241CE6814621
:1038780067E684F8E484E3E600F17F0C66451CDC27
:10388800023353707BE70022C4F8AC2404E09C4563
:103898000AD0984601F00303C3EBC3022244591C23
:1038A80092F89224002AF2D194F8A83484F8A984D2
:1038B80068F3051384F8A834B6E7BF308642DCBF46
:1038C800033353705BE700BFE3270020F427002091
:1038D80000000020B427002080420020E2270020BA
:1038E800590700082DE9F0410C460646FEF7E6FCAC
:1038F8002378063B0746032B67D8DFE803F06A48BE
:10390800025CB94DD5F81804FFF7E0F9002873D127
:103918000026D5F82814D5F8F43442F2283202FBF0
:1039280001F2FF1ABA4264DA012900F0908095F892
:103938001715002900F08880D5F80C04FFF756F910
:10394800AA4B1B7881F00101032B85F8171513D1B9
:10395800A74FA84D3A78A84835F812C00368511CFB
:1039680001F00F0139700021A3EB0C0325F81210A8
:10397800A24A03601B0913800D20FDF711FA3420B9
:1039880013F0F8FB072323703046BDE8F081964D0D
:10399800082323700020C5F8F474FFF747FA0028BD
:1039A800B0D000263223C5F8F464C5F82464267024
:1039B800C5F828341DE08C4DFEF780FCD5F8F834A6
:1039C800C01A40F26353984252DC00263046BDE8E4
:1039D800F081854B2F22002083F88F20FEF7C2FD4F
:1039E800072323700120FDF7DBF9342013F0C2FB15
:1039F80000263046BDE8F081FB20FDF7CBF900F04A
:103A08007F00132884D914213046FFF709FC96F962
:103A18001330002BBFF67CAF337800220121112B25
:103A2800C5F82424C5F828143BD0D5F8F42442F26C
:103A38002833BF1A9F42C8DD002601220120C5F89D
:103A48002424FDF7ADF99AE7FFF7DCF878E7D5F815
:103A58002434642B03F10102F0D9644B1B78322122
:103A6800032BC5F82814E9D1644B00211980E5E738
:103A7800362013F07FFB23F0FFF93A2013F07AFB8E
:103A8800362013F077FB95F800150131C9B205F51A
:103A9800A060FFF79FFB0823C5F8F4742370022683
:103AA800A7E7727895F891339A42BED1B27895F823
:103AB80092339A42B9D1FFF7A5F80846FDF770F995
:103AC800F37803F00303022B08D0342013F052FBE1
:103AD80007232370C5F8F47402261AE7FEF7EEFBF5
:103AE800C5F8F804B07C30F059FF95F8C73373B3C4
:103AF8004349444A0B7B32F81330C3F30713497C1C
:103B0800307932F8111095F8142495F8916385F8F6
:103B18000335090985F804154FF0110C95F892132F
:103B2800B5F88C3085F8FC0485F800C585F8016582
:103B380085F8021585F8053582B9134685F80635E6
:103B480095F8FC2485F8072509232370C2E72E4B36
:103B58002B491B782B4A5B00DBB2D0E795F814356C
:103B680095F84620834223D095F8153585F8163503
:103B780095F8161595F84600244E002205E09EF8A3
:103B880048308CF808300A2A2AD001F10108884206
:103B980005EB010E06EB020CD3B208F03F0102F16F
:103BA8000102ECD1002285F8160585F84620C5E704
:103BB800013303F01F0395F8161585F8143585F8B9
:103BC8001515002AD4D185F81625FEF777FB104B7A
:103BD800104A1B68C31A9342CADD21F019F8C7E7D7
:103BE80085F816151346A9E728230020542B002032
:103BF800552B00205C2B0020582B00207C2B00200C
:103C0800504B0020704B00208042002028280020C4
:103C18004446002047E801002DE9F041C04E96F8DF
:103C280030340446052B00F2E180DFE803F0212C54
:103C38003B97D30396F89033002B00F03982D6F8DF
:103C48000C5428242846FEF7D7FF3220FEF7E6FB5F
:103C58002846FEF7CBFF3220FEF7E0FB631E13F089
:103C6800FF04EFD1062386F830340120BDE8F08147
:103C7800AC4BD6F82C241B689B1A0A2B00F25681F1
:103C88000020BDE8F0810120FFF7D0F8002840F0BF
:103C9800B38096F89003002840F0AE80062386F89B
:103CA8003034EEE796F91C359E4AD6F818157D2B68
:103CB800C4BF822386F81C3513685B1A322B00F2C6
:103CC8002181D6F81804FFF701F80028D8D0FB2086
:103CD800FDF760F810F07F05D2D02946254420462C
:103CE800FFF79EFA15F8013C1A06C9D5A578012DEB
:103CF800C6D103F07F03322BC2D996F81C3586F85B
:103D08009333362013F036FA96F890102320FDF7F7
:103D180045F896F891102420FDF740F896F892108F
:103D28002520FDF73BF800210A20FDF737F83A2057
:103D380013F020FA1420FEF713FB342013F01AFABC
:103D480000240523284686F81D3586F88F40FEF79F
:103D580009FC0323204686F8303492E7D6F8180485
:103D6800FEF7B4FF00288BD0FB20FDF713F810F006
:103D78007F0585D0294625442046FFF751FA15F9D5
:103D8800013C002BBFF67CAFA378012B7FF478AF02
:103D9800607900287FF474AFE278237986F891235C
:103DA8006FF0040186F89233091B621D04F10A05BD
:103DB80000E060798B18034412F8010F3344AA42DB
:103DC80083F89403F5D1237B86F8C633042386F859
:103DD800303455E796F81D55782D49D9362013F01B
:103DE800C9F9052386F8303400204AE7D6F810349C
:103DF8004D49BDE8F0411847D6F80C04FEF7FCFE23
:103E080014211920FCF7CAFF464A82231946126872
:103E180086F81C350C20C6F81825FCF7BFFF0C21C6
:103E28000720FCF7BBFF08211820FCF7B7FF362056
:103E380013F0A0F996F890102320FCF7AFFF96F83E
:103E480091102420FCF7AAFF96F892102520FCF781
:103E5800A5FF00210A20FCF7A1FF3A2013F08AF9F8
:103E6800342013F087F9022386F83034002008E75D
:103E7800D6F81804FEF72AFF00283FF401AFFB200C
:103E8800FCF788FF10F07F073FF4FAAE3946274465
:103E98002046FFF7C5F917F9013C002BBFF6F0AE35
:103EA800A378012B7FF4ECAEE27896F891339A422E
:103EB8007FF4E6AE227996F892339A427FF4E0AE28
:103EC8006279AA427FF4DCAE04F1050E002305E016
:103ED800052B80F894C300F00B8162791EF801CF9E
:103EE80017F8038CF018E045D9B2104403F1010328
:103EF80002D0BCF1000FEBD12C2DE9D90A4486F889
:103F08008F206BE796F81C351268C6F8182505331C
:103F1800DBB219460C2086F81C35FCF73FFFD0E6CB
:103F280028230020B04B002058270020302013F011
:103F380021F94FF47A70FEF713FA8E2022F082FFEF
:103F480001210220FCF72AFF0C211720FCF726FF8D
:103F580018210846FCF722FF04210720FCF71EFF62
:103F6800FF213E20FCF71AFF00210C20FCF716FF6A
:103F78005C210D20FCF712FF76210E20FCF70EFFC6
:103F880027210F20FCF70AFF23211320FCF706FF47
:103F98007A211420FCF702FF16211920FCF7FEFEF7
:103FA8006C211A20FCF7FAFE03211B20FCF7F6FE11
:103FB80040211C20FCF7F2FE91211D20FCF7EEFEAB
:103FC80056212120FCF7EAFE10212220FCF7E6FE0C
:103FD800A9212320FCF7E2FE0A212420FCF7DEFEBB
:103FE80000212520FCF7DAFE11212620FCF7D6FE59
:103FF80059212920FCF7D2FE88212C20FCF7CEFE7F
:1040080031212D20FCF7CAFE0B212E20FCF7C6FE1D
:1040180007210320FCF7C2FE00210920FCF7BEFEA1
:1040280096F8C843082C46D0092C1BD11E2106201F
:10403800FCF7B4FE01210820FCF7B0FE0A210B2092
:10404800FCF7ACFE7B211020FCF7A8FE61211120B3
:10405800FCF7A4FE13211220FCF7A0FE5121152025
:10406800FCF79CFE254C0025362013F083F8E9B2B6
:104078000A20FCF793FE332013F07CF84FF46170AC
:10408800FEF76EF92320FCF785FE20702420FCF74C
:1040980081FE60702520FCF77DFE0135FF2DA070A4
:1040A80004F10304E0D1012386F830340020E8E568
:1040B8000FF0FAF8D6E519210620FCF76FFE052166
:1040C8002046FCF76BFE21460B20FCF767FEAA2171
:1040D8001020FCF763FE39211120FCF75FFE112147
:1040E8001220FCF75BFE42211520FCF757FEB9E7CA
:1040F800053586F81D550020C3E500BFB82300200C
:10410800F8B50546806816461F4610B103688288D0
:104118001A8541F08001686840F2E93401E0002C1A
:1041280044D00389013C13F0020FA4B2F7D0017305
:1041380040F2E93101E0002938D00389013913F050
:10414800010F89B2F7D0037B68684FF0000C8389B0
:104158004FF47A714FF6FF724FF0FF0E03E001390A
:1041680089B291421FD003899C07F8D580F80CE0EA
:104178004FF47A7102E0A1B2914214D00389DB07AF
:1041880001F1FF34F7D5037BDBB20EB13370013692
:104198000CF1010CBC45E6D1AB6813B11A689B88D9
:1041A80093610120F8BDFEF7ABFFF5E7FEF7A8FF26
:1041B800CAE700BF2DE9F04F90F8653087B0054693
:1041C800002B40F0F084AC4E96F81E25D5E9050387
:1041D800002A00F0A081028822F040021204120C8A
:1041E8000280028892B222F0380242F0380202803D
:1041F800028842F04002028095F85F20032A6AD8BC
:1042080095F86210012900F05085A1F10201B1FA78
:1042180081F1490913B11A689B88138540F2E93383
:1042280002E0002B00F0C8860289013B12F0020F61
:104238009BB2F6D01A23037300F10C0240F2E93363
:1042480002E0002B00F0B8860489013B14F0010F4E
:104258009BB2F6D01378686940F2E93302E0002B8C
:1042680000F0A6860289013B12F0020F9BB2F6D03D
:10427800017340F2E93302E0002B00F099860289CD
:10428800013B12F0010F9BB2F6D0037BAB6913B16F
:104298001A689B8893610120FEF762F868690388B1
:1042A80023F040031B041B0C0380038823F038030E
:1042B8001B041B0C0380038843F0400303802B7C02
:1042C800022B00F0C380B5F952305BB2013304D041
:1042D80007B0BDE8F08F00219CE795F95030013315
:1042E800F6D10A23654CDFF8B0A1654F654D664EDF
:1042F800019322F0D3FA4FF4FA73DFF8A0E10093A8
:104308004FF010087B68C3F30803002B40F00A86BF
:10431800EFF31183002B40F005862068AA68236814
:104328009842FAD133689A42F7D8DAF800C04FF4C5
:104338007A7101FB0CF39B1AB3FBFCF301FB003011
:104348004FF47A7C4FF001097B68C3F30803002B14
:1043580040F0C885EFF31183002B40F0C385236834
:10436800A96822689342FAD132689142F7D8DAF8FC
:1043780000200CFB02FBABEB0101B1FBF2F10CFBE3
:1043880003131B1AB3F57A7FDED3009B013B00931E
:10439800B8D1072022F0D6F84FF47A73DFF8FCE0A2
:1043A80000934FF010087B68C3F30803002B40F01C
:1043B800DC85EFF31183002B40F0D7852068AA68CD
:1043C80023689842FAD133689A42F7D8DAF800C0DD
:1043D8004FF47A7101FB0CF39B1AB3FBFCF301FB5E
:1043E80000304FF47A7C4FF001097B68C3F308036F
:1043F800002B40F04285EFF31183002B40F03D8500
:104408002368A96822689342FAD132689142F7D8A2
:10441800DAF800200CFB02FBABEB0101B1FBF2F177
:104428000CFB03131B1AB3F57A7FDED3009B013B09
:104438000093B8D1019B013B01937FF45AAF134914
:104448000F4B1348134A0860DA6041E7AB6913B1B0
:104458001A689B88138540F2E93302E0002B00F0CC
:10446800A6840289013B12F0020F9BB2F6D0C32347
:10447800037340F2E93316E028230020B04B0020F4
:1044880000ED00E010E000E0B84B0020FC9F0020A9
:10449800EFBEADDE0400FA05B44B0020AC4B0020A3
:1044A800002B00F084840289013B12F0010F9BB2BB
:1044B800F6D0037B6869838903899B074FF005045D
:1044C80004AA4FF47A714FF0FF074FF6FF7608D42D
:1044D8004B1E9BB2002900F0BC83194603899B0739
:1044E800F6D507734FF47A7303E08BB2B34200F04A
:1044F800B083B0F808C01CF0010F03F1FF31F4D00D
:10450800017BC9B20AB111700132002C00F0A383FB
:10451800013C1946E2E7028822F040021204120C1C
:104528000280028892B222F0380242F038020280F9
:10453800028842F04002028013B11A689B881385F2
:1045480040F2E93302E0002B00F02D840289013BA0
:1045580012F0020F9BB2F6D06B23037300F10C022A
:1045680040F2E93302E0002B00F01D840189013B91
:1045780011F0010F9BB2F6D01378686940F2E93365
:1045880002E0002B00F006840289013B12F0020FC2
:104598009BB2F6D08023037340F2E93302E0002B8C
:1045A80000F0F8830289013B12F0010F9BB2F6D0AC
:1045B800037BAB6913B11A689B889361A94CDFF838
:1045C800B0A2A94FDFF8AC92DFF8AC824FF0960B9F
:1045D800FDF774FE4FF47A7CA44B5B68C3F30803C1
:1045E800002B40F06583EFF31183002B40F06083CC
:1045F8002368B96822689342FAD1D8F8002091421A
:10460800F6D8DAF800E00CFB0EF2521AB2FBFEF212
:104618000CFB03231B1AB3F57A7FDDD3BBF1010B27
:10462800D6D1AB6913B11A689B881385686940F2C3
:10463800E93302E0002B00F0B0830289013B12F05D
:10464800020F9BB2F6D06823037340F2E93302E00D
:10465800002B00F0A2830289013B12F0010F9BB2EC
:10466800F6D0037B686940F2E93302E0002B00F0E2
:1046780097830289013B12F0020F9BB2F6D0032305
:10468800037340F2E93302E0002B00F089830289CA
:10469800013B12F0010F9BB2F6D0037BAB6913B15B
:1046A8001A689B889361704FDFF8C891DFF8C8815A
:1046B8004FF0960BFDF702FE4FF47A7C6B4B5B686C
:1046C800C3F30803002B40F01483EFF31183002B8E
:1046D80040F00F832368B96822689342FAD1D8F86A
:1046E80000209142F6D8DAF800E00CFB0EF2521ADC
:1046F800B2FBFEF20CFB03231B1AB3F57A7FDDD362
:10470800BBF1010BD6D1AB6913B11A689B8813852D
:10471800686940F2E93302E0002B00F00B8302895C
:10472800013B12F0020F9BB2F6D06B23037340F2E9
:10473800E93302E0002B00F0FD820289013B12F010
:10474800010F9BB2F6D0037B686940F2E93302E0BF
:10475800002B00F0F2820289013B12F0020F9BB29B
:10476800F6D00323037340F2E93302E0002B00F094
:10477800E4820289013B12F0010F9BB2F6D0037B61
:10478800AB6913B11A689B8893610F20FDF7E8FDA8
:10479800AB6913B11A689B881385686940F2E933DD
:1047A80002E0002B00F0CC820289013B12F0020FDC
:1047B8009BB2F6D06A23037340F2E93302E0002B80
:1047C80000F0BE820289013B12F0010F9BB2F6D0C5
:1047D800037B686940F2E93302E0002B00F0B38202
:1047E8000289013B12F0020F9BB2F6D0102303732B
:1047F80040F2E93302E0002B00F0A5820289013B78
:1048080012F0010F9BB2F6D0037BAB6913B11A68A3
:104818009B8893610F20FDF7A3FDAB6913B11A685C
:104828009B881385686940F2E93302E0002B00F0A9
:104838008D820289013B12F0020F9BB2F6D06C23E5
:10484800037340F2E93302E0002B00F07F82028913
:10485800013B12F0010F9BB2F6D0037B686940F26E
:10486800E9330EE0B04B002010E000E000ED00E07E
:10487800B44B0020AC4B0020B84B0020002B00F0BC
:1048880068820289013B12F0020F9BB2F6D0002326
:10489800037340F2E93302E0002B00F05A820289E8
:1048A800013B12F0010F9BB2F6D0037BAB6913B149
:1048B8001A689B8893610F20FDF752FDAB6995F844
:1048C800641013B11A689B881385686940F2E9334C
:1048D80002E0002B00F040820289013B12F0020F37
:1048E8009BB2F6D01923037340F2E93302E0002BA0
:1048F80000F032820289013B12F0010F9BB2F6D020
:10490800037B686940F2E93302E0002B00F027825C
:104918000289013B12F0020F9BB2F6D0017340F2FC
:10492800E93302E0002B00F01A820289013B12F001
:10493800010F9BB2F6D0037BAB6913B11A689B8851
:1049480093610F20FDF70CFDAB6913B11A689B88C2
:104958001385686940F2E93302E0002B00F0028217
:104968000289013B12F0020F9BB2F6D01B2303739E
:1049780040F2E93302E0002B00F0F4810289013BA8
:1049880012F0010F9BB2F6D0037B686940F2E9335D
:1049980002E0002B00F0E9810289013B12F0020FCE
:1049A8009BB2F6D01823037340F2E93302E0002BE0
:1049B80000F0DB810289013B12F0010F9BB2F6D0B7
:1049C800037BAB6913B11A689B8893610F20FDF7CD
:1049D800C7FCAB6913B11A689B881385686940F2F4
:1049E800E93302E0002B00F0C3810289013B12F099
:1049F800020F9BB2F6D01C23037340F2E93302E0A6
:104A0800002B00F0B5810289013B12F0010F9BB227
:104A1800F6D0037B686940F2E93302E0002B00F02E
:104A2800AA810289013B12F0020F9BB2F6D018232B
:104A3800037340F2E93302E0002B00F09C81028905
:104A4800013B12F0010F9BB2F6D0037BAB6913B1A7
:104A58001A689B8893610F20FDF782FCAB6913B13C
:104A68001A689B881385686940F2E93302E0002BD5
:104A780000F084810289013B12F0020F9BB2F6D04C
:104A88003723037340F2E93302E0002B00F076810C
:104A98000289013B12F0010F9BB2F6D0037B6869D3
:104AA80040F2E93302E0002B00F06B810289013B00
:104AB80012F0020F9BB2F6D01023037340F2E933D1
:104AC80002E0002B00F05D810289013B12F0010F2A
:104AD8009BB2F6D0037BAB6913B11A689B889361CC
:104AE8000F20FDF73DFCAB6913B11A689B8813854D
:104AF800686940F2E93302E0002B00F04581028941
:104B0800013B12F0020F9BB2F6D03823037340F238
:104B1800E93302E0002B00F037810289013B12F0F3
:104B2800010F9BB2F6D0037B686940F2E93302E0DB
:104B3800002B00F02C810289013B12F0020F9BB27E
:104B4800F6D00123037340F2E93302E0002B00F0B2
:104B58001E810289013B12F0010F9BB2F6D0037B44
:104B6800AB6913B11A689B8893610F20FDF7F8FBB6
:104B78006A69138823F040031B041B0C13801388F5
:104B880023F038031B041B0C1380138843F04003E5
:104B980013800120FDF7E4FB0122D5E9050386F81F
:104BA8001E25FFF718BB1E09013E052E03F00F0353
:104BB80071D8C24A32F8160040FA03F2D4076AD50F
:104BC800012404FA03F3013B18402FF035FDBC4BD8
:104BD800DFF8049313F80680804419EBC8075AD00D
:104BE80020220023BA71FB7159F83800B54A00F148
:104BF80038439B0AD25C02F01F035209022A04FAC6
:104C080003F300F03581032A00F0D580A24203D1D6
:104C1800AD4A51690B435361BB88049304A900242E
:104C280005941DF0CBFBBB88A84AEA60B3FA83F26F
:104C3800C2F11F02511C40F0C380A54EB3FA83F3A2
:104C4800C3F11F035A1C3FF4BFAA012202FA03F35F
:104C580025E0FEF755FAAB6913B11A689B88936192
:104C68009DF812609DF813309DF810409DF81110C2
:104C78009DF814009DF8152043EA06231BB241EA6B
:104C8800042142EA0022A5F85230A5F85010A5F8F0
:104C98005420FFF71ABB8D4B8D4EEB6001238D49D5
:104CA8000A6813430B60FFF78FBA0721FFF7B2BA00
:104CB800EFF31181102383F31288D7F808E03B68DB
:104CC800DB0304D50123C9F80030D7F808E02368CE
:104CD800D9F80020C9B281F31188DAF8001013441A
:104CE8000CFB01F2A2EB0E02B2FBF1F20CFB032368
:104CF80090E4EFF31181102383F31288D7F808E0CA
:104D08003B68DA0304D50123C9F80030D7F808E076
:104D18002368D9F80020C9B281F31188DAF80010A5
:104D280013440CFB01F2A2EB0E02B2FBF1F20CFBF6
:104D38000323E1E4FEF7E4F906E5FEF7E1F91FE5F0
:104D4800FEF7DEF945E5FEF7DBF95EE5FEF7D8F993
:104D580084E5FEF7D5F9A9E5FEF7D2F9D1E5FEF726
:104D6800CFF9E9E5FEF7CCF90FE6FEF7C9F928E631
:104D7800FEF7C6F94EE6FEF7C3F967E6FEF7C0F997
:104D88008DE6FEF7BDF9A6E6FEF7BAF9CCE6FEF722
:104D9800B7F9E5E6FEF7B4F90BE4FEF7B1F961E41B
:104DA800FEF7AEF97AE4FEF7ABF9FFF7E6BBFEF7DC
:104DB800A7F9FFF77FBB444AD1690B43D3612BE7BF
:104DC800D1B201F0FC0303F1804303F5803301F015
:104DD8000300D3F808C03E4E59F83810DFF8FC80BD
:104DE80080004FF00F0E0EFA00FE2CEA0E0C06EBB8
:104DF800820E05F10C09CEF83494C3F808C0D3F834
:104E080008E0DFF8DCC0C1F38721814008EB02002D
:104E180041EA0E014FF00109996090F86CA209FA75
:104E280002F3CCF8003004A8082304928DF815305A
:104E38008DF816908DF8144021F012FB06EB0A034A
:104E480093F87424F02A11D9D044F02198F87C22E0
:104E58008DF80C2003A803228DF80E408DF80F90D2
:104E680083F874148DF80D201DF07CF9BB88E5E6F5
:104E7800154A91690B439361CEE6EFF3118188F3EC
:104E88001288D5F808B02B68DB0344BFCEF8009031
:104E9800D5F808B02368DEF80020C9B281F311887C
:104EA800DAF8001013440CFB01F2A2EB0B02B2FB80
:104EB800F1F20CFB0323FFF7B5BA00BFD87703085C
:104EC800E4770308F8760308001002406D0A00082A
:104ED80028230020000401408C5E0020F04E0308C7
:104EE80014040140EFF3118188F31288D5F808B053
:104EF8002B68DB0344BFCEF80090D5F808B02368D0
:104F0800DEF80020C9B281F31188DAF800101344E2
:104F18000CFB01F2A2EB0B02B2FBF1F20CFB032338
:104F2800FFF72FBAEFF3118388F31288D5F808C07A
:104F38002A68D20304D50122CEF80020D5F808C08B
:104F48002068DEF80090DBB283F31188DAF80010ED
:104F58004FF47A72484402FB01F3A3EB0C03B3FB52
:104F6800F1F302FB0030FFF7EBB9EFF3118388F39D
:104F78001288D5F808C02A68D20304D50122CEF8D1
:104F88000020D5F808C02068DEF80090DBB283F373
:104F98001188DAF800104FF47A72484402FB01F3E2
:104FA800A3EB0C03B3FBF1F302FB0030FFF719BAD4
:104FB800FEF7A6F8FFF76AB9FEF7A2F8FFF74BB9B4
:104FC800F0B5836983B0064613B11A689B881385C8
:104FD8007069DFF8A0C08389C3244FF47A73062769
:104FE8006D464FF6FF710CF1010C03E0013B9BB2DB
:104FF8008B421CD002899207F8D504734FF47A7358
:1050080002E0A3B28B4212D00289D20703F1FF3427
:10501800F7D5027BD2B20DB12A7001354FB1013FED
:10502800FF24BCF1000FE5D09CF80040DBE7FEF759
:1050380067F8B36913B11A689B8893619DF80500F6
:105048009DF801509DF802109DF803409DF804203A
:105058009DF8063041EA052143EA002342EA04228A
:105068000120A6F85010A6F85220A6F8543003B034
:10507800F0BD00BF74510308037A022B01D0002051
:105088007047F0B5036983B013B11A689B8813851C
:10509800014640F2E933C06801E0002B5ED0028986
:1050A800013B12F0020F9BB2F7D0BB23037340F20F
:1050B800E93301E0002B51D00289013B12F0010FC6
:1050C8009BB2F7D0037BC868838903899C074FF09C
:1050D80005076E464FF47A724FF0FF0C4FF6FF75D6
:1050E80006D4531E9BB2D2B11A4603899C07F8D541
:1050F80080F80CC04FF47A7302E0A3B2AB420ED032
:105108000289D20703F1FF34F7D5027BD2B20EB180
:10511800327001367A1E27B117461A46E5E7FDF7C1
:10512800EFFF0B6913B11A689B8893619DF80060C3
:105138009DF801009DF802509DF803209DF8044059
:105148009DF8053040EA062042EA052243EA042396
:10515800C88201200A834B8303B0F0BDFDF7D0FF5E
:10516800B1E700BF427A4AB110B5044604F10A011A
:10517800D0E9003098470023637210BD704700BF24
:10518800437A5A1C0344D2B242729972037A934208
:105198000AD84AB110B5044604F10A01D0E9003032
:1051A80098470023637210BD704700BFA8B10D4B2C
:1051B800012210B402FA01F103F1750402E003338D
:1051C800A3420BD013F8012C8242F8D11A780A4274
:1051D800F5D001205DF8044B7047704700205DF85A
:1051E800044B70477D51030830B40A4D002305F580
:1051F800237401E0272B0AD003EB43020133A15C9F
:105208008142F7D12A4430BC92F88E0270470020C0
:1052180030BC7047F04E0308024A136823EA0000C6
:105228001060704798820020F8B5BD490B78A3F14B
:105238001702022A0FD9BB4A12F83300002840F09F
:105248002281D800024452782AB1B74A12F8333082
:10525800002B00F0DC810024B44EB54F2546315BAD
:105268004B0803F077334FEA910C0CF0333CCB1A20
:10527800CA08A3EB0C0302F011329B1A03EB2313A9
:1052880003F00F33A7FB03C2D209C2EB02229A1A1A
:1052980011F001031CBF0135EDB2012A06EB040031
:1052A80004F108040BDD022A40F0E98013B111F47F
:1052B8002F7F04D11FF030FE002800F0E080182C6A
:1052C800CDD1013D022D00F2DA808020FFF7A4FF46
:1052D800984A5378052B00F2CE80974903EBC30315
:1052E80001EB430113789548954C0160022B00F2BD
:1052F800BE8003EB430104EB411103EB430304EBD2
:105308004313904D9A88D888296090428E4924BFCB
:1053180000229A808B78042B00F0BE8033B90B886A
:10532800B3F5F07F84BF4FF4F0730B80874D0EF018
:105338008DFB2B68864A1A40002A00F07081DA0734
:1053480000F154815F0400F136811E0700F13A81B3
:10535800980100F13E81990400F143811A047D4DC2
:105368007DD50023EB7385F823302EF0EFFB002862
:105378005CD06B7E032B59D05A1E012A6BD90023AF
:105388002383A4F87830A4F8D8302EF0DFFB002867
:1053980060D1002384F84F3084F8AF3084F80F319F
:1053A8006D4BDA79022A08BF01224FF00A0008BFC4
:1053B800DA712EF02BF900287CD14FF480600BF0C5
:1053C80093FC002800F026814020FFF725FF4FF4CA
:1053D8000070FFF721FF4FF40050FFF71DFF4FF457
:1053E8000030FFF719FF5D4C4FF40010FFF714FF72
:1053F8004FF08060FFF710FFA388002B40F0D380A8
:10540800574A1368DB0DDB050BB100231360936863
:1054180023F4007323F002030BB100239360137984
:10542800013B042B01D901231371F8BD0023A3818B
:105438006382A4F86C30A4F87230A4F8CC30A4F8D5
:10544800D2302EF083FB002899D06B7E5A1E012A99
:1054580095D800E06B7E023B022B9AD8A0E7EA7B46
:10546800002A00F0CB80002385F823307DE7002355
:105478002146137041E700232F49537032E72B4828
:105488000AF09EFD21E7D80014186468002C7FF408
:10549800D9AE17240C70D5E64FF48050FFF7BCFE48
:1054A8008B8AB3F57A7F37BF4FF47A728B788B7813
:1054B8008A8233E72B4F002207F1060E11469446E5
:1054C80001EB4100430017F810000A2807EB030519
:1054D80066D05B1B28464E1C002A62D17344142EEA
:1054E8001D443FF46AAF10F8062F0A2A08D0013687
:1054F800142E1D443FF461AF10F8062F0A2AF6D186
:1055080001229319132B3AD803EB430007EB400110
:1055180017F810000A2808BF01332AD037E000BF67
:10552800003100201C7803082C7E0308E86D002059
:1055380081808080647400202A7F0020204600201B
:10554800E07D00201C460020C860002098820020D2
:10555800096000027C6D002020890020AA3F0020FD
:10556800B8330020CC32002011F8064F0A2C0ED197
:105578000346132B02F1010203F10100F4D9C5F827
:1055880000C0A5F804C0711C142999D115E703EBD4
:10559800430307EB4303196829609B88AB80F2E754
:1055A8004AB30E46ADE72078FCF71EFD00287FF4CD
:1055B80027AFA08024E71C48FFF72EFE2B681E07A4
:1055C8007FF5C6AE1948FFF727FE2B6898017FF5CF
:1055D800C2AE46F20900FFF71FFE2B6899047FF55B
:1055E800BDAE1348FFF718FE2B68B7E61148FFF762
:1055F80013FE2B68A6E60E46012282E742F201025C
:1056080013423FF4B2AE002385F82330ADE61823E9
:105618000B7020E64FF00060FFF7FEFDD4E643F084
:1056280000732B608BE600BF0920000201600002B6
:1056380009400002086000022DE9F34105690646A9
:105648000F467DBBD0F80080C8F30A0323B30023BC
:10565800D6F80080019321F013FC042819D1224CBC
:10566800236943F001032361BBB2A8F8003021F09D
:1056780007FC04282ED108F102030193019B3F0C7B
:105688001F8021F0FDFB2369042823F00103236117
:1056980025D06FF0010505E021F0F2FB042805D0C4
:1056A8004FF0FF35284602B0BDE8F0810E4C236963
:1056B80043F002032361C4F81480236943F04003D4
:1056C800236121F0DDFB2369042823F00203236111
:1056D800BDD0E5E7236923F001032361D9E73368E7
:1056E80004333360DEE700BF00200240F8B504460B
:1056F8000D468E180027B54201D12069F8BDE36830
:10570800591CE160234415F8012B1A720429F2D1BF
:10571800A1682046FFF790FFC4E90370EBE700BFDC
:1057280030B402681146531C036011F8024B016043
:10573800D31C517803609378151D05601B0443EA58
:105748000123D078234343EA006030BC704700BF90
:105758000368591C1A46016012F8021B0260587847
:1057680041EA0020704700BF03685A1C026018789D
:10577800704700BF70B5044608460E462EF070FC10
:1057880031460546024620682FF04EFA2068284424
:10579800206070BD38B50446006815462FF044FAFD
:1057A80022682A44226038BD036810B40A0A5C1CC7
:1057B80004601A7003685A1C026019705DF8044B83
:1057C800704700BF03685A1C026010B41970036860
:1057D8000A0A5C1C04601A7003680A0C5C1C0460EA
:1057E8001A700368090E5A1C026019705DF8044BA0
:1057F800704700BF03685A1C026019700368090AE1
:105808005A1C02601970704707EE901AF8EE677A12
:105818009FED837A27EE800A20EE070AFDEEC07A14
:1058280017EE903A2033402B00F28180DFED7D7A2D
:10583800B4EEE70AF1EE10FA40F3E680B0EE407AF3
:105848009FED796ADFED796A01E0B0EE677AB4EE30
:10585800E67AF1EE10FA77EE467AF6DC9FED747A86
:10586800F4EEC77AF1EE10FA40F1D1809FED6E6A3E
:10587800DFED706A01E0F0EE477AF4EEE67AF1EED9
:1058880010FA37EE867AF6D4DFED6B7AB4EEE77A63
:10589800F1EE10FA40F3A780DFED627A37EEC77AAF
:1058A80027EE076ADFED655ADFED657ADFED656A99
:1058B8009FED655AE6EE257A67EE065AE6EE276A08
:1058C800F7EE007AA5EEA67AF0EE675AE7EE055AEB
:1058D800E7EE457A87EEA55ADFED577A30EE277A5C
:1058E800FDEEC76A16EE903A2033402B24D99FED7F
:1058F800577AF6EE006AB7EE006AF7EE004AC4EE91
:10590800A57A0023836143610362C36180ED045A71
:1059180067EEA66A27EE866A27EE877AC0ED006AE8
:10592800C0ED026A80ED016A80ED037A7047B7EE38
:10593800005AF0EE455ACFE7B4EEE70AF1EE10FA56
:105948006BDD9FED396ADFED396A01E0B0EE677A09
:10595800B4EEE67AF1EE10FA77EE467AF6DC9FEDD1
:10596800347AF4EEC77AF1EE10FA53D59FED2E6A29
:10597800DFED306A01E0F0EE477AF4EEE67AF1EE18
:1059880010FA37EE867AF6D4DFED2B7AB4EEE77AA2
:10599800F1EE10FA33DCDFED2E7AB4EEE77AF1EEB1
:1059A80010FA44BFDFED227A37EEC77A27EE076A8E
:1059B800DFED224ADFED226ADFED227AE6EE246A85
:1059C80067EE064AE6EE267AB7EE006AA4EEA77AF4
:1059D800F6EE006A36EE476AF8EE007A27EE277A86
:1059E80066EE266A89E7DFED1A7AB4EEE77AF1EE19
:1059F80010FA44BFDFED0E7A37EEC77A50E7DFEDD5
:105A0800097A37EEC77AD1E7F0EE407A26E7B0EEAA
:105A1800677A39E7B0EE677AB6E7F0EE477A9EE73D
:105A280027D4D236DB0F4940DB0FC940E4CB1641FF
:105A3800DB0F49C0E4CB16C1DB0FC93F92E741B980
:105A48009730083C15A82ABEF304353F0000000033
:105A5800DB0FC9BFDFED2B7AB4EEE70AF1EE10FADF
:105A68004ADDDFED296A9FED297A01E0B0EE670A89
:105A7800B4EEC70AF1EE10FA70EE667AF6DC9FED26
:105A8800247AF4EEC77AF1EE10FA38D5DFED1E6A03
:105A98009FED207A01E0F0EE407AF4EEC77AF1EE5D
:105AA80010FA37EEA60AF6D4DFED1B7AB4EEE70A51
:105AB800F1EE10FA14DDDFED137A37EEC00A60EE6E
:105AC800006A9FED166A9FED167ADFED167AA6EE4C
